{"abi":[{"type":"constructor","inputs":[{"name":"_treasury","type":"address","internalType":"address"},{"name":"_bondToken","type":"address","internalType":"address"}],"stateMutability":"nonpayable"},{"type":"function","name":"CHALLENGE_PERIOD","inputs":[],"outputs":[{"name":"","type":"uint256","internalType":"uint256"}],"stateMutability":"view"},{"type":"function","name":"INTENT_TYPEHASH","inputs":[],"outputs":[{"name":"","type":"bytes32","internalType":"bytes32"}],"stateMutability":"view"},{"type":"function","name":"MAX_FEE_BPS","inputs":[],"outputs":[{"name":"","type":"uint256","internalType":"uint256"}],"stateMutability":"view"},{"type":"function","name":"MIN_SOLVER_BOND","inputs":[],"outputs":[{"name":"","type":"uint256","internalType":"uint256"}],"stateMutability":"view"},{"type":"function","name":"bondToken","inputs":[],"outputs":[{"name":"","type":"address","internalType":"address"}],"stateMutability":"view"},{"type":"function","name":"challengeIntent","inputs":[{"name":"intent","type":"tuple","internalType":"struct IIntentSource.Intent","components":[{"name":"user","type":"address","internalType":"address"},{"name":"sourceAsset","type":"address","internalType":"address"},{"name":"amount","type":"uint256","internalType":"uint256"},{"name":"destChainId","type":"uint256","internalType":"uint256"},{"name":"destRecipient","type":"address","internalType":"address"},{"name":"destAsset","type":"address","internalType":"address"},{"name":"nonce","type":"uint256","internalType":"uint256"},{"name":"deadline","type":"uint256","internalType":"uint256"},{"name":"extraData","type":"bytes","internalType":"bytes"}]},{"name":"evidence","type":"bytes","internalType":"bytes"}],"outputs":[],"stateMutability":"nonpayable"},{"type":"function","name":"depositBond","inputs":[{"name":"amount","type":"uint256","internalType":"uint256"}],"outputs":[],"stateMutability":"nonpayable"},{"type":"function","name":"domainSeparator","inputs":[],"outputs":[{"name":"","type":"bytes32","internalType":"bytes32"}],"stateMutability":"view"},{"type":"function","name":"eip712Domain","inputs":[],"outputs":[{"name":"fields","type":"bytes1","internalType":"bytes1"},{"name":"name","type":"string","internalType":"string"},{"name":"version","type":"string","internalType":"string"},{"name":"chainId","type":"uint256","internalType":"uint256"},{"name":"verifyingContract","type":"address","internalType":"address"},{"name":"salt","type":"bytes32","internalType":"bytes32"},{"name":"extensions","type":"uint256[]","internalType":"uint256[]"}],"stateMutability":"view"},{"type":"function","name":"feeBps","inputs":[],"outputs":[{"name":"","type":"uint256","internalType":"uint256"}],"stateMutability":"view"},{"type":"function","name":"finalizeIntent","inputs":[{"name":"intent","type":"tuple","internalType":"struct IIntentSource.Intent","components":[{"name":"user","type":"address","internalType":"address"},{"name":"sourceAsset","type":"address","internalType":"address"},{"name":"amount","type":"uint256","internalType":"uint256"},{"name":"destChainId","type":"uint256","internalType":"uint256"},{"name":"destRecipient","type":"address","internalType":"address"},{"name":"destAsset","type":"address","internalType":"address"},{"name":"nonce","type":"uint256","internalType":"uint256"},{"name":"deadline","type":"uint256","internalType":"uint256"},{"name":"extraData","type":"bytes","internalType":"bytes"}]}],"outputs":[],"stateMutability":"nonpayable"},{"type":"function","name":"intentSolvers","inputs":[{"name":"","type":"bytes32","internalType":"bytes32"}],"outputs":[{"name":"","type":"address","internalType":"address"}],"stateMutability":"view"},{"type":"function","name":"latestSettlementChallengeEnd","inputs":[{"name":"","type":"address","internalType":"address"}],"outputs":[{"name":"","type":"uint256","internalType":"uint256"}],"stateMutability":"view"},{"type":"function","name":"lockIntent","inputs":[{"name":"intent","type":"tuple","internalType":"struct IIntentSource.Intent","components":[{"name":"user","type":"address","internalType":"address"},{"name":"sourceAsset","type":"address","internalType":"address"},{"name":"amount","type":"uint256","internalType":"uint256"},{"name":"destChainId","type":"uint256","internalType":"uint256"},{"name":"destRecipient","type":"address","internalType":"address"},{"name":"destAsset","type":"address","internalType":"address"},{"name":"nonce","type":"uint256","internalType":"uint256"},{"name":"deadline","type":"uint256","internalType":"uint256"},{"name":"extraData","type":"bytes","internalType":"bytes"}]},{"name":"signature","type":"bytes","internalType":"bytes"}],"outputs":[],"stateMutability":"nonpayable"},{"type":"function","name":"nonces","inputs":[{"name":"","type":"address","internalType":"address"}],"outputs":[{"name":"","type":"uint256","internalType":"uint256"}],"stateMutability":"view"},{"type":"function","name":"owner","inputs":[],"outputs":[{"name":"","type":"address","internalType":"address"}],"stateMutability":"view"},{"type":"function","name":"pause","inputs":[],"outputs":[],"stateMutability":"nonpayable"},{"type":"function","name":"paused","inputs":[],"outputs":[{"name":"","type":"bool","internalType":"bool"}],"stateMutability":"view"},{"type":"function","name":"refundIntent","inputs":[{"name":"intent","type":"tuple","internalType":"struct IIntentSource.Intent","components":[{"name":"user","type":"address","internalType":"address"},{"name":"sourceAsset","type":"address","internalType":"address"},{"name":"amount","type":"uint256","internalType":"uint256"},{"name":"destChainId","type":"uint256","internalType":"uint256"},{"name":"destRecipient","type":"address","internalType":"address"},{"name":"destAsset","type":"address","internalType":"address"},{"name":"nonce","type":"uint256","internalType":"uint256"},{"name":"deadline","type":"uint256","internalType":"uint256"},{"name":"extraData","type":"bytes","internalType":"bytes"}]}],"outputs":[],"stateMutability":"nonpayable"},{"type":"function","name":"refundedIntents","inputs":[{"name":"","type":"bytes32","internalType":"bytes32"}],"outputs":[{"name":"","type":"bool","internalType":"bool"}],"stateMutability":"view"},{"type":"function","name":"registeredIntents","inputs":[{"name":"","type":"bytes32","internalType":"bytes32"}],"outputs":[{"name":"","type":"bool","internalType":"bool"}],"stateMutability":"view"},{"type":"function","name":"renounceOwnership","inputs":[],"outputs":[],"stateMutability":"nonpayable"},{"type":"function","name":"rescueToken","inputs":[{"name":"token","type":"address","internalType":"address"},{"name":"to","type":"address","internalType":"address"},{"name":"amount","type":"uint256","internalType":"uint256"}],"outputs":[],"stateMutability":"nonpayable"},{"type":"function","name":"setFee","inputs":[{"name":"_feeBps","type":"uint256","internalType":"uint256"}],"outputs":[],"stateMutability":"nonpayable"},{"type":"function","name":"setSolverWhitelist","inputs":[{"name":"solver","type":"address","internalType":"address"},{"name":"status","type":"bool","internalType":"bool"}],"outputs":[],"stateMutability":"nonpayable"},{"type":"function","name":"setTreasury","inputs":[{"name":"_treasury","type":"address","internalType":"address"}],"outputs":[],"stateMutability":"nonpayable"},{"type":"function","name":"setXcmEnabled","inputs":[{"name":"enabled","type":"bool","internalType":"bool"}],"outputs":[],"stateMutability":"nonpayable"},{"type":"function","name":"settleIntent","inputs":[{"name":"intent","type":"tuple","internalType":"struct IIntentSource.Intent","components":[{"name":"user","type":"address","internalType":"address"},{"name":"sourceAsset","type":"address","internalType":"address"},{"name":"amount","type":"uint256","internalType":"uint256"},{"name":"destChainId","type":"uint256","internalType":"uint256"},{"name":"destRecipient","type":"address","internalType":"address"},{"name":"destAsset","type":"address","internalType":"address"},{"name":"nonce","type":"uint256","internalType":"uint256"},{"name":"deadline","type":"uint256","internalType":"uint256"},{"name":"extraData","type":"bytes","internalType":"bytes"}]},{"name":"proof","type":"bytes","internalType":"bytes"}],"outputs":[],"stateMutability":"nonpayable"},{"type":"function","name":"settledIntents","inputs":[{"name":"","type":"bytes32","internalType":"bytes32"}],"outputs":[{"name":"","type":"bool","internalType":"bool"}],"stateMutability":"view"},{"type":"function","name":"settlementTimestamp","inputs":[{"name":"","type":"bytes32","internalType":"bytes32"}],"outputs":[{"name":"","type":"uint256","internalType":"uint256"}],"stateMutability":"view"},{"type":"function","name":"solverBonds","inputs":[{"name":"","type":"address","internalType":"address"}],"outputs":[{"name":"","type":"uint256","internalType":"uint256"}],"stateMutability":"view"},{"type":"function","name":"solverReputation","inputs":[{"name":"","type":"address","internalType":"address"}],"outputs":[{"name":"","type":"uint256","internalType":"uint256"}],"stateMutability":"view"},{"type":"function","name":"transferOwnership","inputs":[{"name":"newOwner","type":"address","internalType":"address"}],"outputs":[],"stateMutability":"nonpayable"},{"type":"function","name":"treasury","inputs":[],"outputs":[{"name":"","type":"address","internalType":"address"}],"stateMutability":"view"},{"type":"function","name":"unpause","inputs":[],"outputs":[],"stateMutability":"nonpayable"},{"type":"function","name":"whitelistedSolvers","inputs":[{"name":"","type":"address","internalType":"address"}],"outputs":[{"name":"","type":"bool","internalType":"bool"}],"stateMutability":"view"},{"type":"function","name":"withdrawBond","inputs":[{"name":"amount","type":"uint256","internalType":"uint256"}],"outputs":[],"stateMutability":"nonpayable"},{"type":"function","name":"xcmEnabled","inputs":[],"outputs":[{"name":"","type":"bool","internalType":"bool"}],"stateMutability":"view"},{"type":"event","name":"EIP712DomainChanged","inputs":[],"anonymous":false},{"type":"event","name":"FeeUpdated","inputs":[{"name":"newFeeBps","type":"uint256","indexed":false,"internalType":"uint256"}],"anonymous":false},{"type":"event","name":"IntentLocked","inputs":[{"name":"intentHash","type":"bytes32","indexed":true,"internalType":"bytes32"},{"name":"intent","type":"tuple","indexed":false,"internalType":"struct IIntentSource.Intent","components":[{"name":"user","type":"address","internalType":"address"},{"name":"sourceAsset","type":"address","internalType":"address"},{"name":"amount","type":"uint256","internalType":"uint256"},{"name":"destChainId","type":"uint256","internalType":"uint256"},{"name":"destRecipient","type":"address","internalType":"address"},{"name":"destAsset","type":"address","internalType":"address"},{"name":"nonce","type":"uint256","internalType":"uint256"},{"name":"deadline","type":"uint256","internalType":"uint256"},{"name":"extraData","type":"bytes","internalType":"bytes"}]}],"anonymous":false},{"type":"event","name":"IntentRefunded","inputs":[{"name":"intentHash","type":"bytes32","indexed":true,"internalType":"bytes32"}],"anonymous":false},{"type":"event","name":"IntentSettled","inputs":[{"name":"intentHash","type":"bytes32","indexed":true,"internalType":"bytes32"},{"name":"solver","type":"address","indexed":true,"internalType":"address"}],"anonymous":false},{"type":"event","name":"OwnershipTransferred","inputs":[{"name":"previousOwner","type":"address","indexed":true,"internalType":"address"},{"name":"newOwner","type":"address","indexed":true,"internalType":"address"}],"anonymous":false},{"type":"event","name":"Paused","inputs":[{"name":"account","type":"address","indexed":false,"internalType":"address"}],"anonymous":false},{"type":"event","name":"SolverWhitelisted","inputs":[{"name":"solver","type":"address","indexed":true,"internalType":"address"},{"name":"status","type":"bool","indexed":false,"internalType":"bool"}],"anonymous":false},{"type":"event","name":"TreasuryUpdated","inputs":[{"name":"newTreasury","type":"address","indexed":true,"internalType":"address"}],"anonymous":false},{"type":"event","name":"Unpaused","inputs":[{"name":"account","type":"address","indexed":false,"internalType":"address"}],"anonymous":false},{"type":"error","name":"InvalidShortString","inputs":[]},{"type":"error","name":"StringTooLong","inputs":[{"name":"str","type":"string","internalType":"string"}]}],"bytecode":{"object":"0x6101606040526032600655600160075f6101000a81548160ff02191690831515021790555034801561002f575f5ffd5b5060405161567338038061567383398181016040528101906100519190610544565b6040518060400160405280601681526020017f506f6c6b61646f74496e74656e7450726f746f636f6c000000000000000000008152506040518060400160405280600581526020017f312e302e300000000000000000000000000000000000000000000000000000008152506100d05f8361030760201b90919060201c565b61012081815250506100ec60018261030760201b90919060201c565b6101408181525050818051906020012060e08181525050808051906020012061010081815250504660a0818152505061012961035460201b60201c565b608081815250503073ffffffffffffffffffffffffffffffffffffffff1660c08173ffffffffffffffffffffffffffffffffffffffff16815250505050600160028190555061018a61017f6103ae60201b60201c565b6103b560201b60201c565b5f600360146101000a81548160ff0219169083151502179055505f73ffffffffffffffffffffffffffffffffffffffff168273ffffffffffffffffffffffffffffffffffffffff1603610212576040517f08c379a0000000000000000000000000000000000000000000000000000000008152600401610209906105dc565b60405180910390fd5b5f73ffffffffffffffffffffffffffffffffffffffff168173ffffffffffffffffffffffffffffffffffffffff1603610280576040517f08c379a000000000000000000000000000000000000000000000000000000000815260040161027790610644565b60405180910390fd5b8160045f6101000a81548173ffffffffffffffffffffffffffffffffffffffff021916908373ffffffffffffffffffffffffffffffffffffffff1602179055508060055f6101000a81548173ffffffffffffffffffffffffffffffffffffffff021916908373ffffffffffffffffffffffffffffffffffffffff1602179055505050610afe565b5f602083511015610328576103218361047860201b60201c565b905061034e565b82610338836104dd60201b60201c565b5f019081610346919061089f565b5060ff5f1b90505b92915050565b5f7f8b73c3c69bb8fe3d512ecc4cf759cc79239f7b179b0ffacaa9a75d522b39400f60e0516101005146306040516020016103939594939291906109a4565b60405160208183030381529060405280519060200120905090565b5f33905090565b5f60035f9054906101000a900473ffffffffffffffffffffffffffffffffffffffff1690508160035f6101000a81548173ffffffffffffffffffffffffffffffffffffffff021916908373ffffffffffffffffffffffffffffffffffffffff1602179055508173ffffffffffffffffffffffffffffffffffffffff168173ffffffffffffffffffffffffffffffffffffffff167f8be0079c531659141344cd1fd0a4f28419497f9722a3daafe3b4186f6b6457e060405160405180910390a35050565b5f5f829050601f815111156104c457826040517f305a27a90000000000000000000000000000000000000000000000000000000081526004016104bb9190610a4b565b60405180910390fd5b8051816104d090610a98565b5f1c175f1b915050919050565b5f819050919050565b5f5ffd5b5f73ffffffffffffffffffffffffffffffffffffffff82169050919050565b5f610513826104ea565b9050919050565b61052381610509565b811461052d575f5ffd5b50565b5f8151905061053e8161051a565b92915050565b5f5f6040838503121561055a576105596104e6565b5b5f61056785828601610530565b925050602061057885828601610530565b9150509250929050565b5f82825260208201905092915050565b7f5661756c743a207a65726f2074726561737572790000000000000000000000005f82015250565b5f6105c6601483610582565b91506105d182610592565b602082019050919050565b5f6020820190508181035f8301526105f3816105ba565b9050919050565b7f5661756c743a207a65726f20626f6e6420746f6b656e000000000000000000005f82015250565b5f61062e601683610582565b9150610639826105fa565b602082019050919050565b5f6020820190508181035f83015261065b81610622565b9050919050565b5f81519050919050565b7f4e487b71000000000000000000000000000000000000000000000000000000005f52604160045260245ffd5b7f4e487b71000000000000000000000000000000000000000000000000000000005f52602260045260245ffd5b5f60028204905060018216806106dd57607f821691505b6020821081036106f0576106ef610699565b5b50919050565b5f819050815f5260205f209050919050565b5f6020601f8301049050919050565b5f82821b905092915050565b5f600883026107527fffffffffffffffffffffffffffffffffffffffffffffffffffffffffffffffff82610717565b61075c8683610717565b95508019841693508086168417925050509392505050565b5f819050919050565b5f819050919050565b5f6107a061079b61079684610774565b61077d565b610774565b9050919050565b5f819050919050565b6107b983610786565b6107cd6107c5826107a7565b848454610723565b825550505050565b5f5f905090565b6107e46107d5565b6107ef8184846107b0565b505050565b5b81811015610812576108075f826107dc565b6001810190506107f5565b5050565b601f82111561085757610828816106f6565b61083184610708565b81016020851015610840578190505b61085461084c85610708565b8301826107f4565b50505b505050565b5f82821c905092915050565b5f6108775f198460080261085c565b1980831691505092915050565b5f61088f8383610868565b9150826002028217905092915050565b6108a882610662565b67ffffffffffffffff8111156108c1576108c061066c565b5b6108cb82546106c6565b6108d6828285610816565b5f60209050601f831160018114610907575f84156108f5578287015190505b6108ff8582610884565b865550610966565b601f198416610915866106f6565b5f5b8281101561093c57848901518255600182019150602085019450602081019050610917565b868310156109595784890151610955601f891682610868565b8355505b6001600288020188555050505b505050505050565b5f819050919050565b6109808161096e565b82525050565b61098f81610774565b82525050565b61099e81610509565b82525050565b5f60a0820190506109b75f830188610977565b6109c46020830187610977565b6109d16040830186610977565b6109de6060830185610986565b6109eb6080830184610995565b9695505050505050565b8281835e5f83830152505050565b5f601f19601f8301169050919050565b5f610a1d82610662565b610a278185610582565b9350610a378185602086016109f5565b610a4081610a03565b840191505092915050565b5f6020820190508181035f830152610a638184610a13565b905092915050565b5f81519050919050565b5f819050602082019050919050565b5f610a8f825161096e565b80915050919050565b5f610aa282610a6b565b82610aac84610a75565b9050610ab781610a84565b92506020821015610af757610af27fffffffffffffffffffffffffffffffffffffffffffffffffffffffffffffffff83602003600802610717565b831692505b5050919050565b60805160a05160c05160e051610100516101205161014051614b24610b4f5f395f6112ac01525f61127801525f612bb001525f612b8f01525f61239901525f6123ef01525f6124180152614b245ff3fe608060405234801561000f575f5ffd5b5060043610610230575f3560e01c80638da5cb5b1161012e578063e38a2a0f116100b6578063f1ac037a1161007a578063f1ac037a1461066a578063f2fde38b1461069a578063f698da25146106b6578063facc1774146106d4578063fd946ccd146106f057610230565b8063e38a2a0f146105a2578063e5711e8b146105d2578063ed3c95c0146105ee578063f08d96e31461061e578063f0f442601461064e57610230565b8063c3daab96116100fd578063c3daab96146104ec578063cd4e6e8814610508578063d540e30214610524578063d55be8c614610554578063dd0c65ff1461057257610230565b80638da5cb5b14610474578063b082a27414610492578063c28f4392146104b0578063c3a079ed146104ce57610230565b80635ec3f04e116101bc578063715018a611610180578063715018a6146103f05780637dc4cce7146103fa5780637ecebe00146104165780638456cb591461044657806384b0196e1461045057610230565b80635ec3f04e1461034c57806361d027b31461036a57806367f846db1461038857806369fe0e2d146103a45780636a035791146103c057610230565b80633f4ba83a116102035780633f4ba83a146102bc57806348a9f882146102c65780634d88df2b146102e25780634dcb05f9146103125780635c975abb1461032e57610230565b80630427842c1461023457806324a9d8531461025057806328a1a6f21461026e57806336b6a3c31461028c575b5f5ffd5b61024e60048036038101906102499190612f28565b61070c565b005b610258610730565b6040516102659190612f6b565b60405180910390f35b610276610736565b6040516102839190612f6b565b60405180910390f35b6102a660048036038101906102a19190612fb7565b610742565b6040516102b39190612ff1565b60405180910390f35b6102c461075f565b005b6102e060048036038101906102db919061308e565b610771565b005b6102fc60048036038101906102f79190613161565b610bbc565b6040516103099190612ff1565b60405180910390f35b61032c600480360381019061032791906131b6565b610bd9565b005b610336610cd8565b6040516103439190612ff1565b60405180910390f35b610354610cee565b6040516103619190612ff1565b60405180910390f35b610372610d00565b60405161037f91906131f0565b60405180910390f35b6103a2600480360381019061039d9190613209565b610d25565b005b6103be60048036038101906103b991906131b6565b610f4c565b005b6103da60048036038101906103d59190612fb7565b610fda565b6040516103e79190612f6b565b60405180910390f35b6103f8610fef565b005b610414600480360381019061040f9190613209565b611002565b005b610430600480360381019061042b9190613161565b611242565b60405161043d9190612f6b565b60405180910390f35b61044e611257565b005b610458611269565b60405161046b97969594939291906133c0565b60405180910390f35b61047c611365565b60405161048991906131f0565b60405180910390f35b61049a61138d565b6040516104a79190613442565b60405180910390f35b6104b86113b1565b6040516104c591906131f0565b60405180910390f35b6104d66113d6565b6040516104e39190612f6b565b60405180910390f35b610506600480360381019061050191906131b6565b6113dd565b005b610522600480360381019061051d919061308e565b61158e565b005b61053e60048036038101906105399190613161565b611907565b60405161054b9190612f6b565b60405180910390f35b61055c61191c565b6040516105699190612f6b565b60405180910390f35b61058c60048036038101906105879190613161565b611922565b6040516105999190612f6b565b60405180910390f35b6105bc60048036038101906105b79190612fb7565b611937565b6040516105c991906131f0565b60405180910390f35b6105ec60048036038101906105e7919061345b565b611967565b005b61060860048036038101906106039190613161565b611a2e565b6040516106159190612f6b565b60405180910390f35b61063860048036038101906106339190612fb7565b611a43565b6040516106459190612ff1565b60405180910390f35b61066860048036038101906106639190613161565b611a60565b005b610684600480360381019061067f9190612fb7565b611b5c565b6040516106919190612ff1565b60405180910390f35b6106b460048036038101906106af9190613161565b611b79565b005b6106be611bfb565b6040516106cb9190613442565b60405180910390f35b6106ee60048036038101906106e991906134ab565b611c09565b005b61070a6004803603810190610705919061308e565b611cb7565b005b610714611ccc565b8060075f6101000a81548160ff02191690831515021790555050565b60065481565b678ac7230489e8000081565b6008602052805f5260405f205f915054906101000a900460ff1681565b610767611ccc565b61076f611d4a565b565b610779611dac565b610781611df9565b3373ffffffffffffffffffffffffffffffffffffffff16835f0160208101906107aa9190613161565b73ffffffffffffffffffffffffffffffffffffffff1614610800576040517f08c379a00000000000000000000000000000000000000000000000000000000081526004016107f790613533565b60405180910390fd5b428360e0013511610846576040517f08c379a000000000000000000000000000000000000000000000000000000000815260040161083d9061359b565b60405180910390fd5b600b5f3373ffffffffffffffffffffffffffffffffffffffff1673ffffffffffffffffffffffffffffffffffffffff1681526020019081526020015f20548360c00135146108c9576040517f08c379a00000000000000000000000000000000000000000000000000000000081526004016108c090613603565b60405180910390fd5b5f7f30787b75dfe7e00a9583ad1bcbaccda9e17c4acb226dce4a3d5f71e756001c77845f0160208101906108fd9190613161565b8560200160208101906109109190613161565b8660400135876060013588608001602081019061092d9190613161565b8960a00160208101906109409190613161565b8a60c001358b60e001358c80610100019061095b919061362d565b6040516109699291906136cb565b604051809103902060405160200161098a9a999897969594939291906136e3565b6040516020818303038152906040528051906020012090505f6109ac82611e43565b90505f610a0585858080601f0160208091040260200160405190810160405280939291908181526020018383808284375f81840152601f19601f8201169050808301925050505050505083611e5c90919063ffffffff16565b9050855f016020810190610a199190613161565b73ffffffffffffffffffffffffffffffffffffffff168173ffffffffffffffffffffffffffffffffffffffff1614610a86576040517f08c379a0000000000000000000000000000000000000000000000000000000008152600401610a7d906137c7565b60405180910390fd5b610ada865f016020810190610a9b9190613161565b308860400135896020016020810190610ab49190613161565b73ffffffffffffffffffffffffffffffffffffffff16611e81909392919063ffffffff16565b600160085f8481526020019081526020015f205f6101000a81548160ff021916908315150217905550600b5f3373ffffffffffffffffffffffffffffffffffffffff1673ffffffffffffffffffffffffffffffffffffffff1681526020019081526020015f205f815480929190610b5090613812565b9190505550817f44ff612ed104f121c15caa0fd4594ef2f7889b230262401692e4a74319a5785387604051610b859190613a4a565b60405180910390a260075f9054906101000a900460ff1615610bac57610bab8683611f0a565b5b505050610bb7612003565b505050565b600c602052805f5260405f205f915054906101000a900460ff1681565b610be1611dac565b678ac7230489e80000811015610c2c576040517f08c379a0000000000000000000000000000000000000000000000000000000008152600401610c2390613ab4565b60405180910390fd5b610c7a33308360055f9054906101000a900473ffffffffffffffffffffffffffffffffffffffff1673ffffffffffffffffffffffffffffffffffffffff16611e81909392919063ffffffff16565b8060105f3373ffffffffffffffffffffffffffffffffffffffff1673ffffffffffffffffffffffffffffffffffffffff1681526020019081526020015f205f828254610cc69190613ad2565b92505081905550610cd5612003565b50565b5f600360149054906101000a900460ff16905090565b60075f9054906101000a900460ff1681565b60045f9054906101000a900473ffffffffffffffffffffffffffffffffffffffff1681565b610d2d611dac565b8060e001354211610d73576040517f08c379a0000000000000000000000000000000000000000000000000000000008152600401610d6a90613b4f565b60405180910390fd5b5f610d7d8261200d565b905060085f8281526020019081526020015f205f9054906101000a900460ff16610ddc576040517f08c379a0000000000000000000000000000000000000000000000000000000008152600401610dd390613bb7565b60405180910390fd5b60095f8281526020019081526020015f205f9054906101000a900460ff1615610e3a576040517f08c379a0000000000000000000000000000000000000000000000000000000008152600401610e3190613c1f565b60405180910390fd5b600a5f8281526020019081526020015f205f9054906101000a900460ff1615610e98576040517f08c379a0000000000000000000000000000000000000000000000000000000008152600401610e8f90613c87565b60405180910390fd5b6001600a5f8381526020019081526020015f205f6101000a81548160ff021916908315150217905550610f13825f016020810190610ed69190613161565b8360400135846020016020810190610eee9190613161565b73ffffffffffffffffffffffffffffffffffffffff166120f39092919063ffffffff16565b807f201e800184023ab964576ffafc7bd0bf44fa36634c07cc62b7069419a752494560405160405180910390a250610f49612003565b50565b610f54611ccc565b6101f4811115610f99576040517f08c379a0000000000000000000000000000000000000000000000000000000008152600401610f9090613cef565b60405180910390fd5b806006819055507f8c4d35e54a3f2ef1134138fd8ea3daee6a3c89e10d2665996babdf70261e2c7681604051610fcf9190612f6b565b60405180910390a150565b600e602052805f5260405f205f915090505481565b610ff7611ccc565b6110005f612179565b565b61100a611dac565b5f6110148261200d565b905060095f8281526020019081526020015f205f9054906101000a900460ff16611073576040517f08c379a000000000000000000000000000000000000000000000000000000000815260040161106a90613d57565b60405180910390fd5b62015180600e5f8381526020019081526020015f20546110939190613ad2565b42116110d4576040517f08c379a00000000000000000000000000000000000000000000000000000000081526004016110cb90613dbf565b60405180910390fd5b5f61271060065484604001356110ea9190613ddd565b6110f49190613e4b565b90505f8184604001356111079190613e7b565b90505f8211156111705761116f60045f9054906101000a900473ffffffffffffffffffffffffffffffffffffffff168386602001602081019061114a9190613161565b73ffffffffffffffffffffffffffffffffffffffff166120f39092919063ffffffff16565b5b5f600f5f8581526020019081526020015f205f9054906101000a900473ffffffffffffffffffffffffffffffffffffffff1690506111e181838760200160208101906111bc9190613161565b73ffffffffffffffffffffffffffffffffffffffff166120f39092919063ffffffff16565b600d5f8273ffffffffffffffffffffffffffffffffffffffff1673ffffffffffffffffffffffffffffffffffffffff1681526020019081526020015f205f81548092919061122e90613812565b91905055505050505061123f612003565b50565b600b602052805f5260405f205f915090505481565b61125f611ccc565b61126761223c565b565b5f6060805f5f5f60606112a55f7f000000000000000000000000000000000000000000000000000000000000000061229f90919063ffffffff16565b6112d960017f000000000000000000000000000000000000000000000000000000000000000061229f90919063ffffffff16565b46305f5f1b5f67ffffffffffffffff8111156112f8576112f7613eae565b5b6040519080825280602002602001820160405280156113265781602001602082028036833780820191505090505b507f0f00000000000000000000000000000000000000000000000000000000000000959493929190965096509650965096509650965090919293949596565b5f60035f9054906101000a900473ffffffffffffffffffffffffffffffffffffffff16905090565b7f30787b75dfe7e00a9583ad1bcbaccda9e17c4acb226dce4a3d5f71e756001c7781565b60055f9054906101000a900473ffffffffffffffffffffffffffffffffffffffff1681565b6201518081565b6113e5611dac565b60115f3373ffffffffffffffffffffffffffffffffffffffff1673ffffffffffffffffffffffffffffffffffffffff1681526020019081526020015f20544211611464576040517f08c379a000000000000000000000000000000000000000000000000000000000815260040161145b90613f25565b60405180910390fd5b8060105f3373ffffffffffffffffffffffffffffffffffffffff1673ffffffffffffffffffffffffffffffffffffffff1681526020019081526020015f205410156114e4576040517f08c379a00000000000000000000000000000000000000000000000000000000081526004016114db90613f8d565b60405180910390fd5b8060105f3373ffffffffffffffffffffffffffffffffffffffff1673ffffffffffffffffffffffffffffffffffffffff1681526020019081526020015f205f8282546115309190613e7b565b92505081905550611583338260055f9054906101000a900473ffffffffffffffffffffffffffffffffffffffff1673ffffffffffffffffffffffffffffffffffffffff166120f39092919063ffffffff16565b61158b612003565b50565b600c5f3373ffffffffffffffffffffffffffffffffffffffff1673ffffffffffffffffffffffffffffffffffffffff1681526020019081526020015f205f9054906101000a900460ff16611617576040517f08c379a000000000000000000000000000000000000000000000000000000000815260040161160e90613ff5565b60405180910390fd5b61161f611dac565b678ac7230489e8000060105f3373ffffffffffffffffffffffffffffffffffffffff1673ffffffffffffffffffffffffffffffffffffffff1681526020019081526020015f205410156116a7576040517f08c379a000000000000000000000000000000000000000000000000000000000815260040161169e9061405d565b60405180910390fd5b5f6116b18461200d565b905060085f8281526020019081526020015f205f9054906101000a900460ff16611710576040517f08c379a000000000000000000000000000000000000000000000000000000000815260040161170790613bb7565b60405180910390fd5b60095f8281526020019081526020015f205f9054906101000a900460ff161561176e576040517f08c379a000000000000000000000000000000000000000000000000000000000815260040161176590613c1f565b60405180910390fd5b600a5f8281526020019081526020015f205f9054906101000a900460ff16156117cc576040517f08c379a00000000000000000000000000000000000000000000000000000000081526004016117c390613c87565b60405180910390fd5b6117d781848461234c565b600160095f8381526020019081526020015f205f6101000a81548160ff02191690831515021790555042600e5f8381526020019081526020015f208190555033600f5f8381526020019081526020015f205f6101000a81548173ffffffffffffffffffffffffffffffffffffffff021916908373ffffffffffffffffffffffffffffffffffffffff16021790555062015180426118749190613ad2565b60115f3373ffffffffffffffffffffffffffffffffffffffff1673ffffffffffffffffffffffffffffffffffffffff1681526020019081526020015f20819055503373ffffffffffffffffffffffffffffffffffffffff16817f7971f6ddf411cd7680d23877011f0dd37f4f3febbcb4561160b1ae338f91e68d60405160405180910390a350611902612003565b505050565b6011602052805f5260405f205f915090505481565b6101f481565b6010602052805f5260405f205f915090505481565b600f602052805f5260405f205f915054906101000a900473ffffffffffffffffffffffffffffffffffffffff1681565b61196f611ccc565b60055f9054906101000a900473ffffffffffffffffffffffffffffffffffffffff1673ffffffffffffffffffffffffffffffffffffffff168373ffffffffffffffffffffffffffffffffffffffff16036119fe576040517f08c379a00000000000000000000000000000000000000000000000000000000081526004016119f5906140c5565b60405180910390fd5b611a2982828573ffffffffffffffffffffffffffffffffffffffff166120f39092919063ffffffff16565b505050565b600d602052805f5260405f205f915090505481565b6009602052805f5260405f205f915054906101000a900460ff1681565b611a68611ccc565b5f73ffffffffffffffffffffffffffffffffffffffff168173ffffffffffffffffffffffffffffffffffffffff1603611ad6576040517f08c379a0000000000000000000000000000000000000000000000000000000008152600401611acd9061412d565b60405180910390fd5b8060045f6101000a81548173ffffffffffffffffffffffffffffffffffffffff021916908373ffffffffffffffffffffffffffffffffffffffff1602179055508073ffffffffffffffffffffffffffffffffffffffff167f7dae230f18360d76a040c81f050aa14eb9d6dc7901b20fc5d855e2a20fe814d160405160405180910390a250565b600a602052805f5260405f205f915054906101000a900460ff1681565b611b81611ccc565b5f73ffffffffffffffffffffffffffffffffffffffff168173ffffffffffffffffffffffffffffffffffffffff1603611bef576040517f08c379a0000000000000000000000000000000000000000000000000000000008152600401611be6906141bb565b60405180910390fd5b611bf881612179565b50565b5f611c04612396565b905090565b611c11611ccc565b80600c5f8473ffffffffffffffffffffffffffffffffffffffff1673ffffffffffffffffffffffffffffffffffffffff1681526020019081526020015f205f6101000a81548160ff0219169083151502179055508173ffffffffffffffffffffffffffffffffffffffff167f56649bfa7bc03c440f247269508177518564a008eb323ca738c2e03462df520182604051611cab9190612ff1565b60405180910390a25050565b611cbf611dac565b611cc7612003565b505050565b611cd461244c565b73ffffffffffffffffffffffffffffffffffffffff16611cf2611365565b73ffffffffffffffffffffffffffffffffffffffff1614611d48576040517f08c379a0000000000000000000000000000000000000000000000000000000008152600401611d3f90614223565b60405180910390fd5b565b611d52612453565b5f600360146101000a81548160ff0219169083151502179055507f5db9ee0a495bf2e6ff9c91a7834c1ba4fdd244a5e8aa4e537bd38aeae4b073aa611d9561244c565b604051611da291906131f0565b60405180910390a1565b6002805403611df0576040517f08c379a0000000000000000000000000000000000000000000000000000000008152600401611de79061428b565b60405180910390fd5b60028081905550565b611e01610cd8565b15611e41576040517f08c379a0000000000000000000000000000000000000000000000000000000008152600401611e38906142f3565b60405180910390fd5b565b5f611e55611e4f612396565b8361249c565b9050919050565b5f5f5f611e6985856124dc565b91509150611e7681612528565b819250505092915050565b611f04846323b872dd60e01b858585604051602401611ea293929190614311565b604051602081830303815290604052907bffffffffffffffffffffffffffffffffffffffffffffffffffffffff19166020820180517bffffffffffffffffffffffffffffffffffffffffffffffffffffffff838183161783525050505061268d565b50505050565b5f82606001350315611fff575f6001805f611f288660600135612753565b604051602001611f3b94939291906143c0565b60405160208183030381529060405290505f82845f016020810190611f609190613161565b8560400135604051602001611f7793929190614409565b60405160208183030381529060405290505f611f92826128e4565b9050620a000073ffffffffffffffffffffffffffffffffffffffff16637f0a3bf984836040518363ffffffff1660e01b8152600401611fd2929190614486565b5f604051808303815f87803b158015611fe9575f5ffd5b505af1925050508015611ffa575060015b505050505b5050565b6001600281905550565b5f6120ec7f30787b75dfe7e00a9583ad1bcbaccda9e17c4acb226dce4a3d5f71e756001c77835f0160208101906120449190613161565b8460200160208101906120579190613161565b856040013586606001358760800160208101906120749190613161565b8860a00160208101906120879190613161565b8960c001358a60e001358b8061010001906120a2919061362d565b6040516120b09291906136cb565b60405180910390206040516020016120d19a999897969594939291906136e3565b60405160208183030381529060405280519060200120611e43565b9050919050565b6121748363a9059cbb60e01b84846040516024016121129291906144bb565b604051602081830303815290604052907bffffffffffffffffffffffffffffffffffffffffffffffffffffffff19166020820180517bffffffffffffffffffffffffffffffffffffffffffffffffffffffff838183161783525050505061268d565b505050565b5f60035f9054906101000a900473ffffffffffffffffffffffffffffffffffffffff1690508160035f6101000a81548173ffffffffffffffffffffffffffffffffffffffff021916908373ffffffffffffffffffffffffffffffffffffffff1602179055508173ffffffffffffffffffffffffffffffffffffffff168173ffffffffffffffffffffffffffffffffffffffff167f8be0079c531659141344cd1fd0a4f28419497f9722a3daafe3b4186f6b6457e060405160405180910390a35050565b612244611df9565b6001600360146101000a81548160ff0219169083151502179055507f62e78cea01bee320cd4e420270b5ea74000d11b0c9f74754ebdbfc544b05a25861228861244c565b60405161229591906131f0565b60405180910390a1565b606060ff5f1b83146122bb576122b483612af9565b9050612346565b8180546122c79061450f565b80601f01602080910402602001604051908101604052809291908181526020018280546122f39061450f565b801561233e5780601f106123155761010080835404028352916020019161233e565b820191905f5260205f20905b81548152906001019060200180831161232157829003601f168201915b505050505090505b92915050565b5f8282905011612391576040517f08c379a000000000000000000000000000000000000000000000000000000000815260040161238890614589565b60405180910390fd5b505050565b5f7f000000000000000000000000000000000000000000000000000000000000000073ffffffffffffffffffffffffffffffffffffffff163073ffffffffffffffffffffffffffffffffffffffff1614801561241157507f000000000000000000000000000000000000000000000000000000000000000046145b1561243e577f00000000000000000000000000000000000000000000000000000000000000009050612449565b612446612b6b565b90505b90565b5f33905090565b61245b610cd8565b61249a576040517f08c379a0000000000000000000000000000000000000000000000000000000008152600401612491906145f1565b60405180910390fd5b565b5f6040517f190100000000000000000000000000000000000000000000000000000000000081528360028201528260228201526042812091505092915050565b5f5f6041835103612519575f5f5f602086015192506040860151915060608601515f1a905061250d87828585612c00565b94509450505050612521565b5f6002915091505b9250929050565b5f600481111561253b5761253a61460f565b5b81600481111561254e5761254d61460f565b5b031561268a57600160048111156125685761256761460f565b5b81600481111561257b5761257a61460f565b5b036125bb576040517f08c379a00000000000000000000000000000000000000000000000000000000081526004016125b290614686565b60405180910390fd5b600260048111156125cf576125ce61460f565b5b8160048111156125e2576125e161460f565b5b03612622576040517f08c379a0000000000000000000000000000000000000000000000000000000008152600401612619906146ee565b60405180910390fd5b600360048111156126365761263561460f565b5b8160048111156126495761264861460f565b5b03612689576040517f08c379a00000000000000000000000000000000000000000000000000000000081526004016126809061477c565b60405180910390fd5b5b50565b5f6126ee826040518060400160405280602081526020017f5361666545524332303a206c6f772d6c6576656c2063616c6c206661696c65648152508573ffffffffffffffffffffffffffffffffffffffff16612cd89092919063ffffffff16565b90505f8151148061270f57508080602001905181019061270e91906147ae565b5b61274e576040517f08c379a000000000000000000000000000000000000000000000000000000000815260040161274590614849565b60405180910390fd5b505050565b60605f600467ffffffffffffffff81111561277157612770613eae565b5b6040519080825280601f01601f1916602001820160405280156127a35781602001600182028036833780820191505090505b5090508260f81b815f815181106127bd576127bc614867565b5b60200101907effffffffffffffffffffffffffffffffffffffffffffffffffffffffffffff191690815f1a90535060088363ffffffff16901c60f81b8160018151811061280d5761280c614867565b5b60200101907effffffffffffffffffffffffffffffffffffffffffffffffffffffffffffff191690815f1a90535060108363ffffffff16901c60f81b8160028151811061285d5761285c614867565b5b60200101907effffffffffffffffffffffffffffffffffffffffffffffffffffffffffffff191690815f1a90535060188363ffffffff16901c60f81b816003815181106128ad576128ac614867565b5b60200101907effffffffffffffffffffffffffffffffffffffffffffffffffffffffffffff191690815f1a90535080915050919050565b60605f825190506060604082101561299457600167ffffffffffffffff81111561291157612910613eae565b5b6040519080825280601f01601f1916602001820160405280156129435781602001600182028036833780820191505090505b509050600282901b60f81b815f8151811061296157612960614867565b5b60200101907effffffffffffffffffffffffffffffffffffffffffffffffffffffffffffff191690815f1a905350612ace565b614000821015612a9257600267ffffffffffffffff8111156129b9576129b8613eae565b5b6040519080825280601f01601f1916602001820160405280156129eb5781602001600182028036833780820191505090505b5090505f6001600284901b1790508060f81b825f81518110612a1057612a0f614867565b5b60200101907effffffffffffffffffffffffffffffffffffffffffffffffffffffffffffff191690815f1a90535060088161ffff16901c60f81b82600181518110612a5e57612a5d614867565b5b60200101907effffffffffffffffffffffffffffffffffffffffffffffffffffffffffffff191690815f1a90535050612acd565b6040517f08c379a0000000000000000000000000000000000000000000000000000000008152600401612ac4906148de565b60405180910390fd5b5b8084604051602001612ae19291906148fc565b60405160208183030381529060405292505050919050565b60605f612b0583612cef565b90505f602067ffffffffffffffff811115612b2357612b22613eae565b5b6040519080825280601f01601f191660200182016040528015612b555781602001600182028036833780820191505090505b5090508181528360208201528092505050919050565b5f7f8b73c3c69bb8fe3d512ecc4cf759cc79239f7b179b0ffacaa9a75d522b39400f7f00000000000000000000000000000000000000000000000000000000000000007f00000000000000000000000000000000000000000000000000000000000000004630604051602001612be595949392919061491f565b60405160208183030381529060405280519060200120905090565b5f5f7f7fffffffffffffffffffffffffffffff5d576e7357a4501ddfe92f46681b20a0835f1c1115612c38575f600391509150612ccf565b5f6001878787876040515f8152602001604052604051612c5b949392919061497f565b6020604051602081039080840390855afa158015612c7b573d5f5f3e3d5ffd5b5050506020604051035190505f73ffffffffffffffffffffffffffffffffffffffff168173ffffffffffffffffffffffffffffffffffffffff1603612cc7575f60019250925050612ccf565b805f92509250505b94509492505050565b6060612ce684845f85612d3d565b90509392505050565b5f5f60ff835f1c169050601f811115612d34576040517fb3512b0c00000000000000000000000000000000000000000000000000000000815260040160405180910390fd5b80915050919050565b606082471015612d82576040517f08c379a0000000000000000000000000000000000000000000000000000000008152600401612d7990614a32565b60405180910390fd5b5f5f8673ffffffffffffffffffffffffffffffffffffffff168587604051612daa9190614a50565b5f6040518083038185875af1925050503d805f8114612de4576040519150601f19603f3d011682016040523d82523d5f602084013e612de9565b606091505b5091509150612dfa87838387612e06565b92505050949350505050565b60608315612e67575f835103612e5f57612e1f85612e7a565b612e5e576040517f08c379a0000000000000000000000000000000000000000000000000000000008152600401612e5590614ab0565b60405180910390fd5b5b829050612e72565b612e718383612e9c565b5b949350505050565b5f5f8273ffffffffffffffffffffffffffffffffffffffff163b119050919050565b5f82511115612eae5781518083602001fd5b806040517f08c379a0000000000000000000000000000000000000000000000000000000008152600401612ee29190614ace565b60405180910390fd5b5f5ffd5b5f5ffd5b5f8115159050919050565b612f0781612ef3565b8114612f11575f5ffd5b50565b5f81359050612f2281612efe565b92915050565b5f60208284031215612f3d57612f3c612eeb565b5b5f612f4a84828501612f14565b91505092915050565b5f819050919050565b612f6581612f53565b82525050565b5f602082019050612f7e5f830184612f5c565b92915050565b5f819050919050565b612f9681612f84565b8114612fa0575f5ffd5b50565b5f81359050612fb181612f8d565b92915050565b5f60208284031215612fcc57612fcb612eeb565b5b5f612fd984828501612fa3565b91505092915050565b612feb81612ef3565b82525050565b5f6020820190506130045f830184612fe2565b92915050565b5f5ffd5b5f61012082840312156130245761302361300a565b5b81905092915050565b5f5ffd5b5f5ffd5b5f5ffd5b5f5f83601f84011261304e5761304d61302d565b5b8235905067ffffffffffffffff81111561306b5761306a613031565b5b60208301915083600182028301111561308757613086613035565b5b9250929050565b5f5f5f604084860312156130a5576130a4612eeb565b5b5f84013567ffffffffffffffff8111156130c2576130c1612eef565b5b6130ce8682870161300e565b935050602084013567ffffffffffffffff8111156130ef576130ee612eef565b5b6130fb86828701613039565b92509250509250925092565b5f73ffffffffffffffffffffffffffffffffffffffff82169050919050565b5f61313082613107565b9050919050565b61314081613126565b811461314a575f5ffd5b50565b5f8135905061315b81613137565b92915050565b5f6020828403121561317657613175612eeb565b5b5f6131838482850161314d565b91505092915050565b61319581612f53565b811461319f575f5ffd5b50565b5f813590506131b08161318c565b92915050565b5f602082840312156131cb576131ca612eeb565b5b5f6131d8848285016131a2565b91505092915050565b6131ea81613126565b82525050565b5f6020820190506132035f8301846131e1565b92915050565b5f6020828403121561321e5761321d612eeb565b5b5f82013567ffffffffffffffff81111561323b5761323a612eef565b5b6132478482850161300e565b91505092915050565b5f7fff0000000000000000000000000000000000000000000000000000000000000082169050919050565b61328481613250565b82525050565b5f81519050919050565b5f82825260208201905092915050565b8281835e5f83830152505050565b5f601f19601f8301169050919050565b5f6132cc8261328a565b6132d68185613294565b93506132e68185602086016132a4565b6132ef816132b2565b840191505092915050565b61330381612f84565b82525050565b5f81519050919050565b5f82825260208201905092915050565b5f819050602082019050919050565b61333b81612f53565b82525050565b5f61334c8383613332565b60208301905092915050565b5f602082019050919050565b5f61336e82613309565b6133788185613313565b935061338383613323565b805f5b838110156133b357815161339a8882613341565b97506133a583613358565b925050600181019050613386565b5085935050505092915050565b5f60e0820190506133d35f83018a61327b565b81810360208301526133e581896132c2565b905081810360408301526133f981886132c2565b90506134086060830187612f5c565b61341560808301866131e1565b61342260a08301856132fa565b81810360c08301526134348184613364565b905098975050505050505050565b5f6020820190506134555f8301846132fa565b92915050565b5f5f5f6060848603121561347257613471612eeb565b5b5f61347f8682870161314d565b93505060206134908682870161314d565b92505060406134a1868287016131a2565b9150509250925092565b5f5f604083850312156134c1576134c0612eeb565b5b5f6134ce8582860161314d565b92505060206134df85828601612f14565b9150509250929050565b7f5661756c743a2075736572206d69736d617463680000000000000000000000005f82015250565b5f61351d601483613294565b9150613528826134e9565b602082019050919050565b5f6020820190508181035f83015261354a81613511565b9050919050565b7f5661756c743a20696e74656e74206578706972656400000000000000000000005f82015250565b5f613585601583613294565b915061359082613551565b602082019050919050565b5f6020820190508181035f8301526135b281613579565b9050919050565b7f5661756c743a20696e76616c6964206e6f6e63650000000000000000000000005f82015250565b5f6135ed601483613294565b91506135f8826135b9565b602082019050919050565b5f6020820190508181035f83015261361a816135e1565b9050919050565b5f5ffd5b5f5ffd5b5f5ffd5b5f5f8335600160200384360303811261364957613648613621565b5b80840192508235915067ffffffffffffffff82111561366b5761366a613625565b5b60208301925060018202360383131561368757613686613629565b5b509250929050565b5f81905092915050565b828183375f83830152505050565b5f6136b2838561368f565b93506136bf838584613699565b82840190509392505050565b5f6136d78284866136a7565b91508190509392505050565b5f610140820190506136f75f83018d6132fa565b613704602083018c6131e1565b613711604083018b6131e1565b61371e606083018a612f5c565b61372b6080830189612f5c565b61373860a08301886131e1565b61374560c08301876131e1565b61375260e0830186612f5c565b613760610100830185612f5c565b61376e6101208301846132fa565b9b9a5050505050505050505050565b7f5661756c743a20696e76616c6964207369676e617475726500000000000000005f82015250565b5f6137b1601883613294565b91506137bc8261377d565b602082019050919050565b5f6020820190508181035f8301526137de816137a5565b9050919050565b7f4e487b71000000000000000000000000000000000000000000000000000000005f52601160045260245ffd5b5f61381c82612f53565b91507fffffffffffffffffffffffffffffffffffffffffffffffffffffffffffffffff820361384e5761384d6137e5565b5b600182019050919050565b5f613867602084018461314d565b905092915050565b61387881613126565b82525050565b5f61388c60208401846131a2565b905092915050565b5f5ffd5b5f5ffd5b5f5ffd5b5f5f833560016020038436030381126138bc576138bb61389c565b5b83810192508235915060208301925067ffffffffffffffff8211156138e4576138e3613894565b5b6001820236038313156138fa576138f9613898565b5b509250929050565b5f82825260208201905092915050565b5f61391d8385613902565b935061392a838584613699565b613933836132b2565b840190509392505050565b5f61012083016139505f840184613859565b61395c5f86018261386f565b5061396a6020840184613859565b613977602086018261386f565b50613985604084018461387e565b6139926040860182613332565b506139a0606084018461387e565b6139ad6060860182613332565b506139bb6080840184613859565b6139c8608086018261386f565b506139d660a0840184613859565b6139e360a086018261386f565b506139f160c084018461387e565b6139fe60c0860182613332565b50613a0c60e084018461387e565b613a1960e0860182613332565b50613a286101008401846138a0565b858303610100870152613a3c838284613912565b925050508091505092915050565b5f6020820190508181035f830152613a62818461393e565b905092915050565b7f5661756c743a20696e73756666696369656e7420626f6e6420616d6f756e74005f82015250565b5f613a9e601f83613294565b9150613aa982613a6a565b602082019050919050565b5f6020820190508181035f830152613acb81613a92565b9050919050565b5f613adc82612f53565b9150613ae783612f53565b9250828201905080821115613aff57613afe6137e5565b5b92915050565b7f5661756c743a20646561646c696e65206e6f74207265616368656400000000005f82015250565b5f613b39601b83613294565b9150613b4482613b05565b602082019050919050565b5f6020820190508181035f830152613b6681613b2d565b9050919050565b7f5661756c743a20696e74656e74206e6f7420666f756e640000000000000000005f82015250565b5f613ba1601783613294565b9150613bac82613b6d565b602082019050919050565b5f6020820190508181035f830152613bce81613b95565b9050919050565b7f5661756c743a20616c726561647920736574746c6564000000000000000000005f82015250565b5f613c09601683613294565b9150613c1482613bd5565b602082019050919050565b5f6020820190508181035f830152613c3681613bfd565b9050919050565b7f5661756c743a20616c726561647920726566756e6465640000000000000000005f82015250565b5f613c71601783613294565b9150613c7c82613c3d565b602082019050919050565b5f6020820190508181035f830152613c9e81613c65565b9050919050565b7f5661756c743a2066656520746f6f2068696768000000000000000000000000005f82015250565b5f613cd9601383613294565b9150613ce482613ca5565b602082019050919050565b5f6020820190508181035f830152613d0681613ccd565b9050919050565b7f5661756c743a206e6f7420736574746c656400000000000000000000000000005f82015250565b5f613d41601283613294565b9150613d4c82613d0d565b602082019050919050565b5f6020820190508181035f830152613d6e81613d35565b9050919050565b7f5661756c743a206368616c6c656e6765206163746976650000000000000000005f82015250565b5f613da9601783613294565b9150613db482613d75565b602082019050919050565b5f6020820190508181035f830152613dd681613d9d565b9050919050565b5f613de782612f53565b9150613df283612f53565b9250828202613e0081612f53565b91508282048414831517613e1757613e166137e5565b5b5092915050565b7f4e487b71000000000000000000000000000000000000000000000000000000005f52601260045260245ffd5b5f613e5582612f53565b9150613e6083612f53565b925082613e7057613e6f613e1e565b5b828204905092915050565b5f613e8582612f53565b9150613e9083612f53565b9250828203905081811115613ea857613ea76137e5565b5b92915050565b7f4e487b71000000000000000000000000000000000000000000000000000000005f52604160045260245ffd5b7f5661756c743a20626f6e64206c6f636b656420666f72206368616c6c656e67655f82015250565b5f613f0f602083613294565b9150613f1a82613edb565b602082019050919050565b5f6020820190508181035f830152613f3c81613f03565b9050919050565b7f5661756c743a20696e73756666696369656e742062616c616e636500000000005f82015250565b5f613f77601b83613294565b9150613f8282613f43565b602082019050919050565b5f6020820190508181035f830152613fa481613f6b565b9050919050565b7f5661756c743a20756e617574686f72697a656420736f6c7665720000000000005f82015250565b5f613fdf601a83613294565b9150613fea82613fab565b602082019050919050565b5f6020820190508181035f83015261400c81613fd3565b9050919050565b7f5661756c743a20736f6c76657220626f6e6420726571756972656400000000005f82015250565b5f614047601b83613294565b915061405282614013565b602082019050919050565b5f6020820190508181035f8301526140748161403b565b9050919050565b7f5661756c743a20626f6e6420746f6b656e2070726f74656374656400000000005f82015250565b5f6140af601b83613294565b91506140ba8261407b565b602082019050919050565b5f6020820190508181035f8301526140dc816140a3565b9050919050565b7f5661756c743a207a65726f2074726561737572790000000000000000000000005f82015250565b5f614117601483613294565b9150614122826140e3565b602082019050919050565b5f6020820190508181035f8301526141448161410b565b9050919050565b7f4f776e61626c653a206e6577206f776e657220697320746865207a65726f20615f8201527f6464726573730000000000000000000000000000000000000000000000000000602082015250565b5f6141a5602683613294565b91506141b08261414b565b604082019050919050565b5f6020820190508181035f8301526141d281614199565b9050919050565b7f4f776e61626c653a2063616c6c6572206973206e6f7420746865206f776e65725f82015250565b5f61420d602083613294565b9150614218826141d9565b602082019050919050565b5f6020820190508181035f83015261423a81614201565b9050919050565b7f5265656e7472616e637947756172643a207265656e7472616e742063616c6c005f82015250565b5f614275601f83613294565b915061428082614241565b602082019050919050565b5f6020820190508181035f8301526142a281614269565b9050919050565b7f5061757361626c653a20706175736564000000000000000000000000000000005f82015250565b5f6142dd601083613294565b91506142e8826142a9565b602082019050919050565b5f6020820190508181035f83015261430a816142d1565b9050919050565b5f6060820190506143245f8301866131e1565b61433160208301856131e1565b61433e6040830184612f5c565b949350505050565b5f60ff82169050919050565b5f8160f81b9050919050565b5f61436882614352565b9050919050565b61438061437b82614346565b61435e565b82525050565b5f81519050919050565b5f61439a82614386565b6143a4818561368f565b93506143b48185602086016132a4565b80840191505092915050565b5f6143cb828761436f565b6001820191506143db828661436f565b6001820191506143eb828561436f565b6001820191506143fb8284614390565b915081905095945050505050565b5f60608201905061441c5f8301866132fa565b61442960208301856131e1565b6144366040830184612f5c565b949350505050565b5f82825260208201905092915050565b5f61445882614386565b614462818561443e565b93506144728185602086016132a4565b61447b816132b2565b840191505092915050565b5f6040820190508181035f83015261449e818561444e565b905081810360208301526144b2818461444e565b90509392505050565b5f6040820190506144ce5f8301856131e1565b6144db6020830184612f5c565b9392505050565b7f4e487b71000000000000000000000000000000000000000000000000000000005f52602260045260245ffd5b5f600282049050600182168061452657607f821691505b602082108103614539576145386144e2565b5b50919050565b7f5661756c743a2070726f6f6620726571756972656400000000000000000000005f82015250565b5f614573601583613294565b915061457e8261453f565b602082019050919050565b5f6020820190508181035f8301526145a081614567565b9050919050565b7f5061757361626c653a206e6f74207061757365640000000000000000000000005f82015250565b5f6145db601483613294565b91506145e6826145a7565b602082019050919050565b5f6020820190508181035f830152614608816145cf565b9050919050565b7f4e487b71000000000000000000000000000000000000000000000000000000005f52602160045260245ffd5b7f45434453413a20696e76616c6964207369676e617475726500000000000000005f82015250565b5f614670601883613294565b915061467b8261463c565b602082019050919050565b5f6020820190508181035f83015261469d81614664565b9050919050565b7f45434453413a20696e76616c6964207369676e6174757265206c656e677468005f82015250565b5f6146d8601f83613294565b91506146e3826146a4565b602082019050919050565b5f6020820190508181035f830152614705816146cc565b9050919050565b7f45434453413a20696e76616c6964207369676e6174757265202773272076616c5f8201527f7565000000000000000000000000000000000000000000000000000000000000602082015250565b5f614766602283613294565b91506147718261470c565b604082019050919050565b5f6020820190508181035f8301526147938161475a565b9050919050565b5f815190506147a881612efe565b92915050565b5f602082840312156147c3576147c2612eeb565b5b5f6147d08482850161479a565b91505092915050565b7f5361666545524332303a204552433230206f7065726174696f6e20646964206e5f8201527f6f74207375636365656400000000000000000000000000000000000000000000602082015250565b5f614833602a83613294565b915061483e826147d9565b604082019050919050565b5f6020820190508181035f83015261486081614827565b9050919050565b7f4e487b71000000000000000000000000000000000000000000000000000000005f52603260045260245ffd5b7f4c69625363616c653a20756e737570706f72746564206c656e677468000000005f82015250565b5f6148c8601c83613294565b91506148d382614894565b602082019050919050565b5f6020820190508181035f8301526148f5816148bc565b9050919050565b5f6149078285614390565b91506149138284614390565b91508190509392505050565b5f60a0820190506149325f8301886132fa565b61493f60208301876132fa565b61494c60408301866132fa565b6149596060830185612f5c565b61496660808301846131e1565b9695505050505050565b61497981614346565b82525050565b5f6080820190506149925f8301876132fa565b61499f6020830186614970565b6149ac60408301856132fa565b6149b960608301846132fa565b95945050505050565b7f416464726573733a20696e73756666696369656e742062616c616e636520666f5f8201527f722063616c6c0000000000000000000000000000000000000000000000000000602082015250565b5f614a1c602683613294565b9150614a27826149c2565b604082019050919050565b5f6020820190508181035f830152614a4981614a10565b9050919050565b5f614a5b8284614390565b915081905092915050565b7f416464726573733a2063616c6c20746f206e6f6e2d636f6e74726163740000005f82015250565b5f614a9a601d83613294565b9150614aa582614a66565b602082019050919050565b5f6020820190508181035f830152614ac781614a8e565b9050919050565b5f6020820190508181035f830152614ae681846132c2565b90509291505056fea264697066735822122082ddd5aba36307bc01b04ecd6cbe8f4758a3bfd5b977ccc57e6f77bf0311c19c64736f6c634300081c0033","linkReferences":{}},"methodIdentifiers":{"CHALLENGE_PERIOD()":"c3a079ed","INTENT_TYPEHASH()":"b082a274","MAX_FEE_BPS()":"d55be8c6","MIN_SOLVER_BOND()":"28a1a6f2","bondToken()":"c28f4392","challengeIntent((address,address,uint256,uint256,address,address,uint256,uint256,bytes),bytes)":"fd946ccd","depositBond(uint256)":"4dcb05f9","domainSeparator()":"f698da25","eip712Domain()":"84b0196e","feeBps()":"24a9d853","finalizeIntent((address,address,uint256,uint256,address,address,uint256,uint256,bytes))":"7dc4cce7","intentSolvers(bytes32)":"e38a2a0f","latestSettlementChallengeEnd(address)":"d540e302","lockIntent((address,address,uint256,uint256,address,address,uint256,uint256,bytes),bytes)":"48a9f882","nonces(address)":"7ecebe00","owner()":"8da5cb5b","pause()":"8456cb59","paused()":"5c975abb","refundIntent((address,address,uint256,uint256,address,address,uint256,uint256,bytes))":"67f846db","refundedIntents(bytes32)":"f1ac037a","registeredIntents(bytes32)":"36b6a3c3","renounceOwnership()":"715018a6","rescueToken(address,address,uint256)":"e5711e8b","setFee(uint256)":"69fe0e2d","setSolverWhitelist(address,bool)":"facc1774","setTreasury(address)":"f0f44260","setXcmEnabled(bool)":"0427842c","settleIntent((address,address,uint256,uint256,address,address,uint256,uint256,bytes),bytes)":"cd4e6e88","settledIntents(bytes32)":"f08d96e3","settlementTimestamp(bytes32)":"6a035791","solverBonds(address)":"dd0c65ff","solverReputation(address)":"ed3c95c0","transferOwnership(address)":"f2fde38b","treasury()":"61d027b3","unpause()":"3f4ba83a","whitelistedSolvers(address)":"4d88df2b","withdrawBond(uint256)":"c3daab96","xcmEnabled()":"5ec3f04e"},"id":39}