{"abi":[{"type":"constructor","inputs":[],"stateMutability":"nonpayable"},{"type":"function","name":"INTENT_TYPEHASH","inputs":[],"outputs":[{"name":"","type":"bytes32","internalType":"bytes32"}],"stateMutability":"view"},{"type":"function","name":"domainSeparator","inputs":[],"outputs":[{"name":"","type":"bytes32","internalType":"bytes32"}],"stateMutability":"view"},{"type":"function","name":"eip712Domain","inputs":[],"outputs":[{"name":"fields","type":"bytes1","internalType":"bytes1"},{"name":"name","type":"string","internalType":"string"},{"name":"version","type":"string","internalType":"string"},{"name":"chainId","type":"uint256","internalType":"uint256"},{"name":"verifyingContract","type":"address","internalType":"address"},{"name":"salt","type":"bytes32","internalType":"bytes32"},{"name":"extensions","type":"uint256[]","internalType":"uint256[]"}],"stateMutability":"view"},{"type":"function","name":"lockIntent","inputs":[{"name":"intent","type":"tuple","internalType":"struct IIntentSource.Intent","components":[{"name":"user","type":"address","internalType":"address"},{"name":"sourceAsset","type":"address","internalType":"address"},{"name":"amount","type":"uint256","internalType":"uint256"},{"name":"destChainId","type":"uint256","internalType":"uint256"},{"name":"destRecipient","type":"address","internalType":"address"},{"name":"destAsset","type":"address","internalType":"address"},{"name":"nonce","type":"uint256","internalType":"uint256"},{"name":"deadline","type":"uint256","internalType":"uint256"},{"name":"extraData","type":"bytes","internalType":"bytes"}]},{"name":"signature","type":"bytes","internalType":"bytes"}],"outputs":[],"stateMutability":"nonpayable"},{"type":"function","name":"nonces","inputs":[{"name":"","type":"address","internalType":"address"}],"outputs":[{"name":"","type":"uint256","internalType":"uint256"}],"stateMutability":"view"},{"type":"function","name":"owner","inputs":[],"outputs":[{"name":"","type":"address","internalType":"address"}],"stateMutability":"view"},{"type":"function","name":"refundIntent","inputs":[{"name":"intent","type":"tuple","internalType":"struct IIntentSource.Intent","components":[{"name":"user","type":"address","internalType":"address"},{"name":"sourceAsset","type":"address","internalType":"address"},{"name":"amount","type":"uint256","internalType":"uint256"},{"name":"destChainId","type":"uint256","internalType":"uint256"},{"name":"destRecipient","type":"address","internalType":"address"},{"name":"destAsset","type":"address","internalType":"address"},{"name":"nonce","type":"uint256","internalType":"uint256"},{"name":"deadline","type":"uint256","internalType":"uint256"},{"name":"extraData","type":"bytes","internalType":"bytes"}]}],"outputs":[],"stateMutability":"nonpayable"},{"type":"function","name":"refundedIntents","inputs":[{"name":"","type":"bytes32","internalType":"bytes32"}],"outputs":[{"name":"","type":"bool","internalType":"bool"}],"stateMutability":"view"},{"type":"function","name":"registeredIntents","inputs":[{"name":"","type":"bytes32","internalType":"bytes32"}],"outputs":[{"name":"","type":"bool","internalType":"bool"}],"stateMutability":"view"},{"type":"function","name":"renounceOwnership","inputs":[],"outputs":[],"stateMutability":"nonpayable"},{"type":"function","name":"setXcmEnabled","inputs":[{"name":"enabled","type":"bool","internalType":"bool"}],"outputs":[],"stateMutability":"nonpayable"},{"type":"function","name":"settleIntent","inputs":[{"name":"intent","type":"tuple","internalType":"struct IIntentSource.Intent","components":[{"name":"user","type":"address","internalType":"address"},{"name":"sourceAsset","type":"address","internalType":"address"},{"name":"amount","type":"uint256","internalType":"uint256"},{"name":"destChainId","type":"uint256","internalType":"uint256"},{"name":"destRecipient","type":"address","internalType":"address"},{"name":"destAsset","type":"address","internalType":"address"},{"name":"nonce","type":"uint256","internalType":"uint256"},{"name":"deadline","type":"uint256","internalType":"uint256"},{"name":"extraData","type":"bytes","internalType":"bytes"}]},{"name":"proof","type":"bytes","internalType":"bytes"}],"outputs":[],"stateMutability":"nonpayable"},{"type":"function","name":"settledIntents","inputs":[{"name":"","type":"bytes32","internalType":"bytes32"}],"outputs":[{"name":"","type":"bool","internalType":"bool"}],"stateMutability":"view"},{"type":"function","name":"transferOwnership","inputs":[{"name":"newOwner","type":"address","internalType":"address"}],"outputs":[],"stateMutability":"nonpayable"},{"type":"function","name":"xcmEnabled","inputs":[],"outputs":[{"name":"","type":"bool","internalType":"bool"}],"stateMutability":"view"},{"type":"event","name":"EIP712DomainChanged","inputs":[],"anonymous":false},{"type":"event","name":"IntentLocked","inputs":[{"name":"intentHash","type":"bytes32","indexed":true,"internalType":"bytes32"},{"name":"intent","type":"tuple","indexed":false,"internalType":"struct IIntentSource.Intent","components":[{"name":"user","type":"address","internalType":"address"},{"name":"sourceAsset","type":"address","internalType":"address"},{"name":"amount","type":"uint256","internalType":"uint256"},{"name":"destChainId","type":"uint256","internalType":"uint256"},{"name":"destRecipient","type":"address","internalType":"address"},{"name":"destAsset","type":"address","internalType":"address"},{"name":"nonce","type":"uint256","internalType":"uint256"},{"name":"deadline","type":"uint256","internalType":"uint256"},{"name":"extraData","type":"bytes","internalType":"bytes"}]}],"anonymous":false},{"type":"event","name":"IntentRefunded","inputs":[{"name":"intentHash","type":"bytes32","indexed":true,"internalType":"bytes32"}],"anonymous":false},{"type":"event","name":"IntentSettled","inputs":[{"name":"intentHash","type":"bytes32","indexed":true,"internalType":"bytes32"},{"name":"solver","type":"address","indexed":true,"internalType":"address"}],"anonymous":false},{"type":"event","name":"OwnershipTransferred","inputs":[{"name":"previousOwner","type":"address","indexed":true,"internalType":"address"},{"name":"newOwner","type":"address","indexed":true,"internalType":"address"}],"anonymous":false},{"type":"error","name":"InvalidShortString","inputs":[]},{"type":"error","name":"StringTooLong","inputs":[{"name":"str","type":"string","internalType":"string"}]}],"bytecode":{"object":"0x610160604052600160085f6101000a81548160ff02191690831515021790555034801561002a575f5ffd5b506040518060400160405280601681526020017f506f6c6b61646f74496e74656e7450726f746f636f6c000000000000000000008152506040518060400160405280600581526020017f312e302e300000000000000000000000000000000000000000000000000000008152506100aa5f8361016960201b90919060201c565b61012081815250506100c660018261016960201b90919060201c565b6101408181525050818051906020012060e08181525050808051906020012061010081815250504660a081815250506101036101b660201b60201c565b608081815250503073ffffffffffffffffffffffffffffffffffffffff1660c08173ffffffffffffffffffffffffffffffffffffffff16815250505050600160028190555061016461015961021060201b60201c565b61021760201b60201c565b610824565b5f60208351101561018a57610183836102da60201b60201c565b90506101b0565b8261019a8361033f60201b60201c565b5f0190816101a89190610585565b5060ff5f1b90505b92915050565b5f7f8b73c3c69bb8fe3d512ecc4cf759cc79239f7b179b0ffacaa9a75d522b39400f60e0516101005146306040516020016101f59594939291906106ba565b60405160208183030381529060405280519060200120905090565b5f33905090565b5f60035f9054906101000a900473ffffffffffffffffffffffffffffffffffffffff1690508160035f6101000a81548173ffffffffffffffffffffffffffffffffffffffff021916908373ffffffffffffffffffffffffffffffffffffffff1602179055508173ffffffffffffffffffffffffffffffffffffffff168173ffffffffffffffffffffffffffffffffffffffff167f8be0079c531659141344cd1fd0a4f28419497f9722a3daafe3b4186f6b6457e060405160405180910390a35050565b5f5f829050601f8151111561032657826040517f305a27a900000000000000000000000000000000000000000000000000000000815260040161031d9190610771565b60405180910390fd5b805181610332906107be565b5f1c175f1b915050919050565b5f819050919050565b5f81519050919050565b7f4e487b71000000000000000000000000000000000000000000000000000000005f52604160045260245ffd5b7f4e487b71000000000000000000000000000000000000000000000000000000005f52602260045260245ffd5b5f60028204905060018216806103c357607f821691505b6020821081036103d6576103d561037f565b5b50919050565b5f819050815f5260205f209050919050565b5f6020601f8301049050919050565b5f82821b905092915050565b5f600883026104387fffffffffffffffffffffffffffffffffffffffffffffffffffffffffffffffff826103fd565b61044286836103fd565b95508019841693508086168417925050509392505050565b5f819050919050565b5f819050919050565b5f61048661048161047c8461045a565b610463565b61045a565b9050919050565b5f819050919050565b61049f8361046c565b6104b36104ab8261048d565b848454610409565b825550505050565b5f5f905090565b6104ca6104bb565b6104d5818484610496565b505050565b5b818110156104f8576104ed5f826104c2565b6001810190506104db565b5050565b601f82111561053d5761050e816103dc565b610517846103ee565b81016020851015610526578190505b61053a610532856103ee565b8301826104da565b50505b505050565b5f82821c905092915050565b5f61055d5f1984600802610542565b1980831691505092915050565b5f610575838361054e565b9150826002028217905092915050565b61058e82610348565b67ffffffffffffffff8111156105a7576105a6610352565b5b6105b182546103ac565b6105bc8282856104fc565b5f60209050601f8311600181146105ed575f84156105db578287015190505b6105e5858261056a565b86555061064c565b601f1984166105fb866103dc565b5f5b82811015610622578489015182556001820191506020850194506020810190506105fd565b8683101561063f578489015161063b601f89168261054e565b8355505b6001600288020188555050505b505050505050565b5f819050919050565b61066681610654565b82525050565b6106758161045a565b82525050565b5f73ffffffffffffffffffffffffffffffffffffffff82169050919050565b5f6106a48261067b565b9050919050565b6106b48161069a565b82525050565b5f60a0820190506106cd5f83018861065d565b6106da602083018761065d565b6106e7604083018661065d565b6106f4606083018561066c565b61070160808301846106ab565b9695505050505050565b5f82825260208201905092915050565b8281835e5f83830152505050565b5f601f19601f8301169050919050565b5f61074382610348565b61074d818561070b565b935061075d81856020860161071b565b61076681610729565b840191505092915050565b5f6020820190508181035f8301526107898184610739565b905092915050565b5f81519050919050565b5f819050602082019050919050565b5f6107b58251610654565b80915050919050565b5f6107c882610791565b826107d28461079b565b90506107dd816107aa565b9250602082101561081d576108187fffffffffffffffffffffffffffffffffffffffffffffffffffffffffffffffff836020036008026103fd565b831692505b5050919050565b60805160a05160c05160e05161010051610120516101405161300b6108755f395f610a1101525f6109dd01525f6117a501525f61178401525f61137d01525f6113d301525f6113fc015261300b5ff3fe608060405234801561000f575f5ffd5b50600436106100f3575f3560e01c806384b0196e11610095578063f08d96e311610064578063f08d96e31461024f578063f1ac037a1461027f578063f2fde38b146102af578063f698da25146102cb576100f3565b806384b0196e146101d35780638da5cb5b146101f7578063b082a27414610215578063cd4e6e8814610233576100f3565b80635ec3f04e116100d15780635ec3f04e1461015f57806367f846db1461017d578063715018a6146101995780637ecebe00146101a3576100f3565b80630427842c146100f757806336b6a3c31461011357806348a9f88214610143575b5f5ffd5b610111600480360381019061010c9190611b1d565b6102e9565b005b61012d60048036038101906101289190611b7b565b61030d565b60405161013a9190611bb5565b60405180910390f35b61015d60048036038101906101589190611c52565b61032a565b005b61016761076d565b6040516101749190611bb5565b60405180910390f35b61019760048036038101906101929190611ccb565b61077f565b005b6101a16109a6565b005b6101bd60048036038101906101b89190611d6c565b6109b9565b6040516101ca9190611daf565b60405180910390f35b6101db6109ce565b6040516101ee9796959493929190611f47565b60405180910390f35b6101ff610aca565b60405161020c9190611fc9565b60405180910390f35b61021d610af2565b60405161022a9190611fe2565b60405180910390f35b61024d60048036038101906102489190611c52565b610b16565b005b61026960048036038101906102649190611b7b565b610d0a565b6040516102769190611bb5565b60405180910390f35b61029960048036038101906102949190611b7b565b610d27565b6040516102a69190611bb5565b60405180910390f35b6102c960048036038101906102c49190611d6c565b610d44565b005b6102d3610dc6565b6040516102e09190611fe2565b60405180910390f35b6102f1610dd4565b8060085f6101000a81548160ff02191690831515021790555050565b6004602052805f5260405f205f915054906101000a900460ff1681565b610332610e52565b3373ffffffffffffffffffffffffffffffffffffffff16835f01602081019061035b9190611d6c565b73ffffffffffffffffffffffffffffffffffffffff16146103b1576040517f08c379a00000000000000000000000000000000000000000000000000000000081526004016103a890612045565b60405180910390fd5b428360e00135116103f7576040517f08c379a00000000000000000000000000000000000000000000000000000000081526004016103ee906120ad565b60405180910390fd5b60075f3373ffffffffffffffffffffffffffffffffffffffff1673ffffffffffffffffffffffffffffffffffffffff1681526020019081526020015f20548360c001351461047a576040517f08c379a000000000000000000000000000000000000000000000000000000000815260040161047190612115565b60405180910390fd5b5f7f30787b75dfe7e00a9583ad1bcbaccda9e17c4acb226dce4a3d5f71e756001c77845f0160208101906104ae9190611d6c565b8560200160208101906104c19190611d6c565b866040013587606001358860800160208101906104de9190611d6c565b8960a00160208101906104f19190611d6c565b8a60c001358b60e001358c80610100019061050c919061213f565b60405161051a9291906121dd565b604051809103902060405160200161053b9a999897969594939291906121f5565b6040516020818303038152906040528051906020012090505f61055d82610e9f565b90505f6105b685858080601f0160208091040260200160405190810160405280939291908181526020018383808284375f81840152601f19601f8201169050808301925050505050505083610eb890919063ffffffff16565b9050855f0160208101906105ca9190611d6c565b73ffffffffffffffffffffffffffffffffffffffff168173ffffffffffffffffffffffffffffffffffffffff1614610637576040517f08c379a000000000000000000000000000000000000000000000000000000000815260040161062e906122d9565b60405180910390fd5b61068b865f01602081019061064c9190611d6c565b3088604001358960200160208101906106659190611d6c565b73ffffffffffffffffffffffffffffffffffffffff16610edd909392919063ffffffff16565b600160045f8481526020019081526020015f205f6101000a81548160ff02191690831515021790555060075f3373ffffffffffffffffffffffffffffffffffffffff1673ffffffffffffffffffffffffffffffffffffffff1681526020019081526020015f205f81548092919061070190612324565b9190505550817f44ff612ed104f121c15caa0fd4594ef2f7889b230262401692e4a74319a57853876040516107369190612586565b60405180910390a260085f9054906101000a900460ff161561075d5761075c8683610f66565b5b50505061076861104a565b505050565b60085f9054906101000a900460ff1681565b610787610e52565b8060e0013542116107cd576040517f08c379a00000000000000000000000000000000000000000000000000000000081526004016107c4906125f0565b60405180910390fd5b5f6107d782611054565b905060045f8281526020019081526020015f205f9054906101000a900460ff16610836576040517f08c379a000000000000000000000000000000000000000000000000000000000815260040161082d90612658565b60405180910390fd5b60055f8281526020019081526020015f205f9054906101000a900460ff1615610894576040517f08c379a000000000000000000000000000000000000000000000000000000000815260040161088b906126c0565b60405180910390fd5b60065f8281526020019081526020015f205f9054906101000a900460ff16156108f2576040517f08c379a00000000000000000000000000000000000000000000000000000000081526004016108e990612728565b60405180910390fd5b600160065f8381526020019081526020015f205f6101000a81548160ff02191690831515021790555061096d825f0160208101906109309190611d6c565b83604001358460200160208101906109489190611d6c565b73ffffffffffffffffffffffffffffffffffffffff1661113a9092919063ffffffff16565b807f201e800184023ab964576ffafc7bd0bf44fa36634c07cc62b7069419a752494560405160405180910390a2506109a361104a565b50565b6109ae610dd4565b6109b75f6111c0565b565b6007602052805f5260405f205f915090505481565b5f6060805f5f5f6060610a0a5f7f000000000000000000000000000000000000000000000000000000000000000061128390919063ffffffff16565b610a3e60017f000000000000000000000000000000000000000000000000000000000000000061128390919063ffffffff16565b46305f5f1b5f67ffffffffffffffff811115610a5d57610a5c612746565b5b604051908082528060200260200182016040528015610a8b5781602001602082028036833780820191505090505b507f0f00000000000000000000000000000000000000000000000000000000000000959493929190965096509650965096509650965090919293949596565b5f60035f9054906101000a900473ffffffffffffffffffffffffffffffffffffffff16905090565b7f30787b75dfe7e00a9583ad1bcbaccda9e17c4acb226dce4a3d5f71e756001c7781565b610b1e610e52565b5f610b2884611054565b905060045f8281526020019081526020015f205f9054906101000a900460ff16610b87576040517f08c379a0000000000000000000000000000000000000000000000000000000008152600401610b7e90612658565b60405180910390fd5b60055f8281526020019081526020015f205f9054906101000a900460ff1615610be5576040517f08c379a0000000000000000000000000000000000000000000000000000000008152600401610bdc906126c0565b60405180910390fd5b60065f8281526020019081526020015f205f9054906101000a900460ff1615610c43576040517f08c379a0000000000000000000000000000000000000000000000000000000008152600401610c3a90612728565b60405180910390fd5b610c4e818484611330565b600160055f8381526020019081526020015f205f6101000a81548160ff021916908315150217905550610cb8338560400135866020016020810190610c939190611d6c565b73ffffffffffffffffffffffffffffffffffffffff1661113a9092919063ffffffff16565b3373ffffffffffffffffffffffffffffffffffffffff16817f7971f6ddf411cd7680d23877011f0dd37f4f3febbcb4561160b1ae338f91e68d60405160405180910390a350610d0561104a565b505050565b6005602052805f5260405f205f915054906101000a900460ff1681565b6006602052805f5260405f205f915054906101000a900460ff1681565b610d4c610dd4565b5f73ffffffffffffffffffffffffffffffffffffffff168173ffffffffffffffffffffffffffffffffffffffff1603610dba576040517f08c379a0000000000000000000000000000000000000000000000000000000008152600401610db1906127e3565b60405180910390fd5b610dc3816111c0565b50565b5f610dcf61137a565b905090565b610ddc611430565b73ffffffffffffffffffffffffffffffffffffffff16610dfa610aca565b73ffffffffffffffffffffffffffffffffffffffff1614610e50576040517f08c379a0000000000000000000000000000000000000000000000000000000008152600401610e479061284b565b60405180910390fd5b565b6002805403610e96576040517f08c379a0000000000000000000000000000000000000000000000000000000008152600401610e8d906128b3565b60405180910390fd5b60028081905550565b5f610eb1610eab61137a565b83611437565b9050919050565b5f5f5f610ec58585611477565b91509150610ed2816114c3565b819250505092915050565b610f60846323b872dd60e01b858585604051602401610efe939291906128d1565b604051602081830303815290604052907bffffffffffffffffffffffffffffffffffffffffffffffffffffffff19166020820180517bffffffffffffffffffffffffffffffffffffffffffffffffffffffff8381831617835250505050611628565b50505050565b5f82606001350315611046575f6001805f8560600135604051602001610f8f9493929190612989565b60405160208183030381529060405290505f82845f016020810190610fb49190611d6c565b8560400135604051602001610fcb939291906129d6565b6040516020818303038152906040529050620a000073ffffffffffffffffffffffffffffffffffffffff16637f0a3bf983836040518363ffffffff1660e01b815260040161101a929190612a5d565b5f604051808303815f87803b158015611031575f5ffd5b505af1925050508015611042575060015b5050505b5050565b6001600281905550565b5f6111337f30787b75dfe7e00a9583ad1bcbaccda9e17c4acb226dce4a3d5f71e756001c77835f01602081019061108b9190611d6c565b84602001602081019061109e9190611d6c565b856040013586606001358760800160208101906110bb9190611d6c565b8860a00160208101906110ce9190611d6c565b8960c001358a60e001358b8061010001906110e9919061213f565b6040516110f79291906121dd565b60405180910390206040516020016111189a999897969594939291906121f5565b60405160208183030381529060405280519060200120610e9f565b9050919050565b6111bb8363a9059cbb60e01b8484604051602401611159929190612a92565b604051602081830303815290604052907bffffffffffffffffffffffffffffffffffffffffffffffffffffffff19166020820180517bffffffffffffffffffffffffffffffffffffffffffffffffffffffff8381831617835250505050611628565b505050565b5f60035f9054906101000a900473ffffffffffffffffffffffffffffffffffffffff1690508160035f6101000a81548173ffffffffffffffffffffffffffffffffffffffff021916908373ffffffffffffffffffffffffffffffffffffffff1602179055508173ffffffffffffffffffffffffffffffffffffffff168173ffffffffffffffffffffffffffffffffffffffff167f8be0079c531659141344cd1fd0a4f28419497f9722a3daafe3b4186f6b6457e060405160405180910390a35050565b606060ff5f1b831461129f57611298836116ee565b905061132a565b8180546112ab90612ae6565b80601f01602080910402602001604051908101604052809291908181526020018280546112d790612ae6565b80156113225780601f106112f957610100808354040283529160200191611322565b820191905f5260205f20905b81548152906001019060200180831161130557829003601f168201915b505050505090505b92915050565b5f8282905011611375576040517f08c379a000000000000000000000000000000000000000000000000000000000815260040161136c90612b60565b60405180910390fd5b505050565b5f7f000000000000000000000000000000000000000000000000000000000000000073ffffffffffffffffffffffffffffffffffffffff163073ffffffffffffffffffffffffffffffffffffffff161480156113f557507f000000000000000000000000000000000000000000000000000000000000000046145b15611422577f0000000000000000000000000000000000000000000000000000000000000000905061142d565b61142a611760565b90505b90565b5f33905090565b5f6040517f190100000000000000000000000000000000000000000000000000000000000081528360028201528260228201526042812091505092915050565b5f5f60418351036114b4575f5f5f602086015192506040860151915060608601515f1a90506114a8878285856117f5565b945094505050506114bc565b5f6002915091505b9250929050565b5f60048111156114d6576114d5612b7e565b5b8160048111156114e9576114e8612b7e565b5b0315611625576001600481111561150357611502612b7e565b5b81600481111561151657611515612b7e565b5b03611556576040517f08c379a000000000000000000000000000000000000000000000000000000000815260040161154d90612bf5565b60405180910390fd5b6002600481111561156a57611569612b7e565b5b81600481111561157d5761157c612b7e565b5b036115bd576040517f08c379a00000000000000000000000000000000000000000000000000000000081526004016115b490612c5d565b60405180910390fd5b600360048111156115d1576115d0612b7e565b5b8160048111156115e4576115e3612b7e565b5b03611624576040517f08c379a000000000000000000000000000000000000000000000000000000000815260040161161b90612ceb565b60405180910390fd5b5b50565b5f611689826040518060400160405280602081526020017f5361666545524332303a206c6f772d6c6576656c2063616c6c206661696c65648152508573ffffffffffffffffffffffffffffffffffffffff166118cd9092919063ffffffff16565b90505f815114806116aa5750808060200190518101906116a99190612d1d565b5b6116e9576040517f08c379a00000000000000000000000000000000000000000000000000000000081526004016116e090612db8565b60405180910390fd5b505050565b60605f6116fa836118e4565b90505f602067ffffffffffffffff81111561171857611717612746565b5b6040519080825280601f01601f19166020018201604052801561174a5781602001600182028036833780820191505090505b5090508181528360208201528092505050919050565b5f7f8b73c3c69bb8fe3d512ecc4cf759cc79239f7b179b0ffacaa9a75d522b39400f7f00000000000000000000000000000000000000000000000000000000000000007f000000000000000000000000000000000000000000000000000000000000000046306040516020016117da959493929190612dd6565b60405160208183030381529060405280519060200120905090565b5f5f7f7fffffffffffffffffffffffffffffff5d576e7357a4501ddfe92f46681b20a0835f1c111561182d575f6003915091506118c4565b5f6001878787876040515f81526020016040526040516118509493929190612e36565b6020604051602081039080840390855afa158015611870573d5f5f3e3d5ffd5b5050506020604051035190505f73ffffffffffffffffffffffffffffffffffffffff168173ffffffffffffffffffffffffffffffffffffffff16036118bc575f600192509250506118c4565b805f92509250505b94509492505050565b60606118db84845f85611932565b90509392505050565b5f5f60ff835f1c169050601f811115611929576040517fb3512b0c00000000000000000000000000000000000000000000000000000000815260040160405180910390fd5b80915050919050565b606082471015611977576040517f08c379a000000000000000000000000000000000000000000000000000000000815260040161196e90612ee9565b60405180910390fd5b5f5f8673ffffffffffffffffffffffffffffffffffffffff16858760405161199f9190612f37565b5f6040518083038185875af1925050503d805f81146119d9576040519150601f19603f3d011682016040523d82523d5f602084013e6119de565b606091505b50915091506119ef878383876119fb565b92505050949350505050565b60608315611a5c575f835103611a5457611a1485611a6f565b611a53576040517f08c379a0000000000000000000000000000000000000000000000000000000008152600401611a4a90612f97565b60405180910390fd5b5b829050611a67565b611a668383611a91565b5b949350505050565b5f5f8273ffffffffffffffffffffffffffffffffffffffff163b119050919050565b5f82511115611aa35781518083602001fd5b806040517f08c379a0000000000000000000000000000000000000000000000000000000008152600401611ad79190612fb5565b60405180910390fd5b5f5ffd5b5f5ffd5b5f8115159050919050565b611afc81611ae8565b8114611b06575f5ffd5b50565b5f81359050611b1781611af3565b92915050565b5f60208284031215611b3257611b31611ae0565b5b5f611b3f84828501611b09565b91505092915050565b5f819050919050565b611b5a81611b48565b8114611b64575f5ffd5b50565b5f81359050611b7581611b51565b92915050565b5f60208284031215611b9057611b8f611ae0565b5b5f611b9d84828501611b67565b91505092915050565b611baf81611ae8565b82525050565b5f602082019050611bc85f830184611ba6565b92915050565b5f5ffd5b5f6101208284031215611be857611be7611bce565b5b81905092915050565b5f5ffd5b5f5ffd5b5f5ffd5b5f5f83601f840112611c1257611c11611bf1565b5b8235905067ffffffffffffffff811115611c2f57611c2e611bf5565b5b602083019150836001820283011115611c4b57611c4a611bf9565b5b9250929050565b5f5f5f60408486031215611c6957611c68611ae0565b5b5f84013567ffffffffffffffff811115611c8657611c85611ae4565b5b611c9286828701611bd2565b935050602084013567ffffffffffffffff811115611cb357611cb2611ae4565b5b611cbf86828701611bfd565b92509250509250925092565b5f60208284031215611ce057611cdf611ae0565b5b5f82013567ffffffffffffffff811115611cfd57611cfc611ae4565b5b611d0984828501611bd2565b91505092915050565b5f73ffffffffffffffffffffffffffffffffffffffff82169050919050565b5f611d3b82611d12565b9050919050565b611d4b81611d31565b8114611d55575f5ffd5b50565b5f81359050611d6681611d42565b92915050565b5f60208284031215611d8157611d80611ae0565b5b5f611d8e84828501611d58565b91505092915050565b5f819050919050565b611da981611d97565b82525050565b5f602082019050611dc25f830184611da0565b92915050565b5f7fff0000000000000000000000000000000000000000000000000000000000000082169050919050565b611dfc81611dc8565b82525050565b5f81519050919050565b5f82825260208201905092915050565b8281835e5f83830152505050565b5f601f19601f8301169050919050565b5f611e4482611e02565b611e4e8185611e0c565b9350611e5e818560208601611e1c565b611e6781611e2a565b840191505092915050565b611e7b81611d31565b82525050565b611e8a81611b48565b82525050565b5f81519050919050565b5f82825260208201905092915050565b5f819050602082019050919050565b611ec281611d97565b82525050565b5f611ed38383611eb9565b60208301905092915050565b5f602082019050919050565b5f611ef582611e90565b611eff8185611e9a565b9350611f0a83611eaa565b805f5b83811015611f3a578151611f218882611ec8565b9750611f2c83611edf565b925050600181019050611f0d565b5085935050505092915050565b5f60e082019050611f5a5f83018a611df3565b8181036020830152611f6c8189611e3a565b90508181036040830152611f808188611e3a565b9050611f8f6060830187611da0565b611f9c6080830186611e72565b611fa960a0830185611e81565b81810360c0830152611fbb8184611eeb565b905098975050505050505050565b5f602082019050611fdc5f830184611e72565b92915050565b5f602082019050611ff55f830184611e81565b92915050565b7f496e74656e743a2075736572206d69736d6174636800000000000000000000005f82015250565b5f61202f601583611e0c565b915061203a82611ffb565b602082019050919050565b5f6020820190508181035f83015261205c81612023565b9050919050565b7f496e74656e743a206578706972656400000000000000000000000000000000005f82015250565b5f612097600f83611e0c565b91506120a282612063565b602082019050919050565b5f6020820190508181035f8301526120c48161208b565b9050919050565b7f496e74656e743a20696e76616c6964206e6f6e636500000000000000000000005f82015250565b5f6120ff601583611e0c565b915061210a826120cb565b602082019050919050565b5f6020820190508181035f83015261212c816120f3565b9050919050565b5f5ffd5b5f5ffd5b5f5ffd5b5f5f8335600160200384360303811261215b5761215a612133565b5b80840192508235915067ffffffffffffffff82111561217d5761217c612137565b5b6020830192506001820236038313156121995761219861213b565b5b509250929050565b5f81905092915050565b828183375f83830152505050565b5f6121c483856121a1565b93506121d18385846121ab565b82840190509392505050565b5f6121e98284866121b9565b91508190509392505050565b5f610140820190506122095f83018d611e81565b612216602083018c611e72565b612223604083018b611e72565b612230606083018a611da0565b61223d6080830189611da0565b61224a60a0830188611e72565b61225760c0830187611e72565b61226460e0830186611da0565b612272610100830185611da0565b612280610120830184611e81565b9b9a5050505050505050505050565b7f496e74656e743a20696e76616c6964207369676e6174757265000000000000005f82015250565b5f6122c3601983611e0c565b91506122ce8261228f565b602082019050919050565b5f6020820190508181035f8301526122f0816122b7565b9050919050565b7f4e487b71000000000000000000000000000000000000000000000000000000005f52601160045260245ffd5b5f61232e82611d97565b91507fffffffffffffffffffffffffffffffffffffffffffffffffffffffffffffffff82036123605761235f6122f7565b5b600182019050919050565b5f6123796020840184611d58565b905092915050565b61238a81611d31565b82525050565b61239981611d97565b81146123a3575f5ffd5b50565b5f813590506123b481612390565b92915050565b5f6123c860208401846123a6565b905092915050565b5f5ffd5b5f5ffd5b5f5ffd5b5f5f833560016020038436030381126123f8576123f76123d8565b5b83810192508235915060208301925067ffffffffffffffff8211156124205761241f6123d0565b5b600182023603831315612436576124356123d4565b5b509250929050565b5f82825260208201905092915050565b5f612459838561243e565b93506124668385846121ab565b61246f83611e2a565b840190509392505050565b5f610120830161248c5f84018461236b565b6124985f860182612381565b506124a6602084018461236b565b6124b36020860182612381565b506124c160408401846123ba565b6124ce6040860182611eb9565b506124dc60608401846123ba565b6124e96060860182611eb9565b506124f7608084018461236b565b6125046080860182612381565b5061251260a084018461236b565b61251f60a0860182612381565b5061252d60c08401846123ba565b61253a60c0860182611eb9565b5061254860e08401846123ba565b61255560e0860182611eb9565b506125646101008401846123dc565b85830361010087015261257883828461244e565b925050508091505092915050565b5f6020820190508181035f83015261259e818461247a565b905092915050565b7f496e74656e743a206e6f742065787069726564000000000000000000000000005f82015250565b5f6125da601383611e0c565b91506125e5826125a6565b602082019050919050565b5f6020820190508181035f830152612607816125ce565b9050919050565b7f496e74656e743a206e6f742072656769737465726564000000000000000000005f82015250565b5f612642601683611e0c565b915061264d8261260e565b602082019050919050565b5f6020820190508181035f83015261266f81612636565b9050919050565b7f496e74656e743a20616c726561647920736574746c65640000000000000000005f82015250565b5f6126aa601783611e0c565b91506126b582612676565b602082019050919050565b5f6020820190508181035f8301526126d78161269e565b9050919050565b7f496e74656e743a20616c726561647920726566756e64656400000000000000005f82015250565b5f612712601883611e0c565b915061271d826126de565b602082019050919050565b5f6020820190508181035f83015261273f81612706565b9050919050565b7f4e487b71000000000000000000000000000000000000000000000000000000005f52604160045260245ffd5b7f4f776e61626c653a206e6577206f776e657220697320746865207a65726f20615f8201527f6464726573730000000000000000000000000000000000000000000000000000602082015250565b5f6127cd602683611e0c565b91506127d882612773565b604082019050919050565b5f6020820190508181035f8301526127fa816127c1565b9050919050565b7f4f776e61626c653a2063616c6c6572206973206e6f7420746865206f776e65725f82015250565b5f612835602083611e0c565b915061284082612801565b602082019050919050565b5f6020820190508181035f83015261286281612829565b9050919050565b7f5265656e7472616e637947756172643a207265656e7472616e742063616c6c005f82015250565b5f61289d601f83611e0c565b91506128a882612869565b602082019050919050565b5f6020820190508181035f8301526128ca81612891565b9050919050565b5f6060820190506128e45f830186611e72565b6128f16020830185611e72565b6128fe6040830184611da0565b949350505050565b5f60ff82169050919050565b5f8160f81b9050919050565b5f61292882612912565b9050919050565b61294061293b82612906565b61291e565b82525050565b5f63ffffffff82169050919050565b5f8160e01b9050919050565b5f61296b82612955565b9050919050565b61298361297e82612946565b612961565b82525050565b5f612994828761292f565b6001820191506129a4828661292f565b6001820191506129b4828561292f565b6001820191506129c48284612972565b60048201915081905095945050505050565b5f6060820190506129e95f830186611e81565b6129f66020830185611e72565b612a036040830184611da0565b949350505050565b5f81519050919050565b5f82825260208201905092915050565b5f612a2f82612a0b565b612a398185612a15565b9350612a49818560208601611e1c565b612a5281611e2a565b840191505092915050565b5f6040820190508181035f830152612a758185612a25565b90508181036020830152612a898184612a25565b90509392505050565b5f604082019050612aa55f830185611e72565b612ab26020830184611da0565b9392505050565b7f4e487b71000000000000000000000000000000000000000000000000000000005f52602260045260245ffd5b5f6002820490506001821680612afd57607f821691505b602082108103612b1057612b0f612ab9565b5b50919050565b7f496e74656e743a20656d7074792070726f6f66000000000000000000000000005f82015250565b5f612b4a601383611e0c565b9150612b5582612b16565b602082019050919050565b5f6020820190508181035f830152612b7781612b3e565b9050919050565b7f4e487b71000000000000000000000000000000000000000000000000000000005f52602160045260245ffd5b7f45434453413a20696e76616c6964207369676e617475726500000000000000005f82015250565b5f612bdf601883611e0c565b9150612bea82612bab565b602082019050919050565b5f6020820190508181035f830152612c0c81612bd3565b9050919050565b7f45434453413a20696e76616c6964207369676e6174757265206c656e677468005f82015250565b5f612c47601f83611e0c565b9150612c5282612c13565b602082019050919050565b5f6020820190508181035f830152612c7481612c3b565b9050919050565b7f45434453413a20696e76616c6964207369676e6174757265202773272076616c5f8201527f7565000000000000000000000000000000000000000000000000000000000000602082015250565b5f612cd5602283611e0c565b9150612ce082612c7b565b604082019050919050565b5f6020820190508181035f830152612d0281612cc9565b9050919050565b5f81519050612d1781611af3565b92915050565b5f60208284031215612d3257612d31611ae0565b5b5f612d3f84828501612d09565b91505092915050565b7f5361666545524332303a204552433230206f7065726174696f6e20646964206e5f8201527f6f74207375636365656400000000000000000000000000000000000000000000602082015250565b5f612da2602a83611e0c565b9150612dad82612d48565b604082019050919050565b5f6020820190508181035f830152612dcf81612d96565b9050919050565b5f60a082019050612de95f830188611e81565b612df66020830187611e81565b612e036040830186611e81565b612e106060830185611da0565b612e1d6080830184611e72565b9695505050505050565b612e3081612906565b82525050565b5f608082019050612e495f830187611e81565b612e566020830186612e27565b612e636040830185611e81565b612e706060830184611e81565b95945050505050565b7f416464726573733a20696e73756666696369656e742062616c616e636520666f5f8201527f722063616c6c0000000000000000000000000000000000000000000000000000602082015250565b5f612ed3602683611e0c565b9150612ede82612e79565b604082019050919050565b5f6020820190508181035f830152612f0081612ec7565b9050919050565b5f612f1182612a0b565b612f1b81856121a1565b9350612f2b818560208601611e1c565b80840191505092915050565b5f612f428284612f07565b915081905092915050565b7f416464726573733a2063616c6c20746f206e6f6e2d636f6e74726163740000005f82015250565b5f612f81601d83611e0c565b9150612f8c82612f4d565b602082019050919050565b5f6020820190508181035f830152612fae81612f75565b9050919050565b5f6020820190508181035f830152612fcd8184611e3a565b90509291505056fea2646970667358221220c99493f2d08fe1d27e831c4ae2b2588d122744cdb0418a0bfb964cca9c24537664736f6c634300081c0033","linkReferences":{}},"methodIdentifiers":{"INTENT_TYPEHASH()":"b082a274","domainSeparator()":"f698da25","eip712Domain()":"84b0196e","lockIntent((address,address,uint256,uint256,address,address,uint256,uint256,bytes),bytes)":"48a9f882","nonces(address)":"7ecebe00","owner()":"8da5cb5b","refundIntent((address,address,uint256,uint256,address,address,uint256,uint256,bytes))":"67f846db","refundedIntents(bytes32)":"f1ac037a","registeredIntents(bytes32)":"36b6a3c3","renounceOwnership()":"715018a6","setXcmEnabled(bool)":"0427842c","settleIntent((address,address,uint256,uint256,address,address,uint256,uint256,bytes),bytes)":"cd4e6e88","settledIntents(bytes32)":"f08d96e3","transferOwnership(address)":"f2fde38b","xcmEnabled()":"5ec3f04e"},"id":38}