{"abi":[{"type":"constructor","inputs":[{"name":"_treasury","type":"address","internalType":"address"}],"stateMutability":"nonpayable"},{"type":"function","name":"INTENT_TYPEHASH","inputs":[],"outputs":[{"name":"","type":"bytes32","internalType":"bytes32"}],"stateMutability":"view"},{"type":"function","name":"MAX_FEE_BPS","inputs":[],"outputs":[{"name":"","type":"uint256","internalType":"uint256"}],"stateMutability":"view"},{"type":"function","name":"domainSeparator","inputs":[],"outputs":[{"name":"","type":"bytes32","internalType":"bytes32"}],"stateMutability":"view"},{"type":"function","name":"eip712Domain","inputs":[],"outputs":[{"name":"fields","type":"bytes1","internalType":"bytes1"},{"name":"name","type":"string","internalType":"string"},{"name":"version","type":"string","internalType":"string"},{"name":"chainId","type":"uint256","internalType":"uint256"},{"name":"verifyingContract","type":"address","internalType":"address"},{"name":"salt","type":"bytes32","internalType":"bytes32"},{"name":"extensions","type":"uint256[]","internalType":"uint256[]"}],"stateMutability":"view"},{"type":"function","name":"feeBps","inputs":[],"outputs":[{"name":"","type":"uint256","internalType":"uint256"}],"stateMutability":"view"},{"type":"function","name":"lockIntent","inputs":[{"name":"intent","type":"tuple","internalType":"struct IIntentSource.Intent","components":[{"name":"user","type":"address","internalType":"address"},{"name":"sourceAsset","type":"address","internalType":"address"},{"name":"amount","type":"uint256","internalType":"uint256"},{"name":"destChainId","type":"uint256","internalType":"uint256"},{"name":"destRecipient","type":"address","internalType":"address"},{"name":"destAsset","type":"address","internalType":"address"},{"name":"nonce","type":"uint256","internalType":"uint256"},{"name":"deadline","type":"uint256","internalType":"uint256"},{"name":"extraData","type":"bytes","internalType":"bytes"}]},{"name":"signature","type":"bytes","internalType":"bytes"}],"outputs":[],"stateMutability":"nonpayable"},{"type":"function","name":"nonces","inputs":[{"name":"","type":"address","internalType":"address"}],"outputs":[{"name":"","type":"uint256","internalType":"uint256"}],"stateMutability":"view"},{"type":"function","name":"owner","inputs":[],"outputs":[{"name":"","type":"address","internalType":"address"}],"stateMutability":"view"},{"type":"function","name":"pause","inputs":[],"outputs":[],"stateMutability":"nonpayable"},{"type":"function","name":"paused","inputs":[],"outputs":[{"name":"","type":"bool","internalType":"bool"}],"stateMutability":"view"},{"type":"function","name":"refundIntent","inputs":[{"name":"intent","type":"tuple","internalType":"struct IIntentSource.Intent","components":[{"name":"user","type":"address","internalType":"address"},{"name":"sourceAsset","type":"address","internalType":"address"},{"name":"amount","type":"uint256","internalType":"uint256"},{"name":"destChainId","type":"uint256","internalType":"uint256"},{"name":"destRecipient","type":"address","internalType":"address"},{"name":"destAsset","type":"address","internalType":"address"},{"name":"nonce","type":"uint256","internalType":"uint256"},{"name":"deadline","type":"uint256","internalType":"uint256"},{"name":"extraData","type":"bytes","internalType":"bytes"}]}],"outputs":[],"stateMutability":"nonpayable"},{"type":"function","name":"refundedIntents","inputs":[{"name":"","type":"bytes32","internalType":"bytes32"}],"outputs":[{"name":"","type":"bool","internalType":"bool"}],"stateMutability":"view"},{"type":"function","name":"registeredIntents","inputs":[{"name":"","type":"bytes32","internalType":"bytes32"}],"outputs":[{"name":"","type":"bool","internalType":"bool"}],"stateMutability":"view"},{"type":"function","name":"renounceOwnership","inputs":[],"outputs":[],"stateMutability":"nonpayable"},{"type":"function","name":"rescueToken","inputs":[{"name":"token","type":"address","internalType":"address"},{"name":"to","type":"address","internalType":"address"},{"name":"amount","type":"uint256","internalType":"uint256"}],"outputs":[],"stateMutability":"nonpayable"},{"type":"function","name":"setFee","inputs":[{"name":"_feeBps","type":"uint256","internalType":"uint256"}],"outputs":[],"stateMutability":"nonpayable"},{"type":"function","name":"setSolverWhitelist","inputs":[{"name":"solver","type":"address","internalType":"address"},{"name":"status","type":"bool","internalType":"bool"}],"outputs":[],"stateMutability":"nonpayable"},{"type":"function","name":"setTreasury","inputs":[{"name":"_treasury","type":"address","internalType":"address"}],"outputs":[],"stateMutability":"nonpayable"},{"type":"function","name":"setXcmEnabled","inputs":[{"name":"enabled","type":"bool","internalType":"bool"}],"outputs":[],"stateMutability":"nonpayable"},{"type":"function","name":"settleIntent","inputs":[{"name":"intent","type":"tuple","internalType":"struct IIntentSource.Intent","components":[{"name":"user","type":"address","internalType":"address"},{"name":"sourceAsset","type":"address","internalType":"address"},{"name":"amount","type":"uint256","internalType":"uint256"},{"name":"destChainId","type":"uint256","internalType":"uint256"},{"name":"destRecipient","type":"address","internalType":"address"},{"name":"destAsset","type":"address","internalType":"address"},{"name":"nonce","type":"uint256","internalType":"uint256"},{"name":"deadline","type":"uint256","internalType":"uint256"},{"name":"extraData","type":"bytes","internalType":"bytes"}]},{"name":"proof","type":"bytes","internalType":"bytes"}],"outputs":[],"stateMutability":"nonpayable"},{"type":"function","name":"settledIntents","inputs":[{"name":"","type":"bytes32","internalType":"bytes32"}],"outputs":[{"name":"","type":"bool","internalType":"bool"}],"stateMutability":"view"},{"type":"function","name":"solverReputation","inputs":[{"name":"","type":"address","internalType":"address"}],"outputs":[{"name":"","type":"uint256","internalType":"uint256"}],"stateMutability":"view"},{"type":"function","name":"transferOwnership","inputs":[{"name":"newOwner","type":"address","internalType":"address"}],"outputs":[],"stateMutability":"nonpayable"},{"type":"function","name":"treasury","inputs":[],"outputs":[{"name":"","type":"address","internalType":"address"}],"stateMutability":"view"},{"type":"function","name":"unpause","inputs":[],"outputs":[],"stateMutability":"nonpayable"},{"type":"function","name":"whitelistedSolvers","inputs":[{"name":"","type":"address","internalType":"address"}],"outputs":[{"name":"","type":"bool","internalType":"bool"}],"stateMutability":"view"},{"type":"function","name":"xcmEnabled","inputs":[],"outputs":[{"name":"","type":"bool","internalType":"bool"}],"stateMutability":"view"},{"type":"event","name":"EIP712DomainChanged","inputs":[],"anonymous":false},{"type":"event","name":"FeeUpdated","inputs":[{"name":"newFeeBps","type":"uint256","indexed":false,"internalType":"uint256"}],"anonymous":false},{"type":"event","name":"IntentLocked","inputs":[{"name":"intentHash","type":"bytes32","indexed":true,"internalType":"bytes32"},{"name":"intent","type":"tuple","indexed":false,"internalType":"struct IIntentSource.Intent","components":[{"name":"user","type":"address","internalType":"address"},{"name":"sourceAsset","type":"address","internalType":"address"},{"name":"amount","type":"uint256","internalType":"uint256"},{"name":"destChainId","type":"uint256","internalType":"uint256"},{"name":"destRecipient","type":"address","internalType":"address"},{"name":"destAsset","type":"address","internalType":"address"},{"name":"nonce","type":"uint256","internalType":"uint256"},{"name":"deadline","type":"uint256","internalType":"uint256"},{"name":"extraData","type":"bytes","internalType":"bytes"}]}],"anonymous":false},{"type":"event","name":"IntentRefunded","inputs":[{"name":"intentHash","type":"bytes32","indexed":true,"internalType":"bytes32"}],"anonymous":false},{"type":"event","name":"IntentSettled","inputs":[{"name":"intentHash","type":"bytes32","indexed":true,"internalType":"bytes32"},{"name":"solver","type":"address","indexed":true,"internalType":"address"}],"anonymous":false},{"type":"event","name":"OwnershipTransferred","inputs":[{"name":"previousOwner","type":"address","indexed":true,"internalType":"address"},{"name":"newOwner","type":"address","indexed":true,"internalType":"address"}],"anonymous":false},{"type":"event","name":"Paused","inputs":[{"name":"account","type":"address","indexed":false,"internalType":"address"}],"anonymous":false},{"type":"event","name":"SolverWhitelisted","inputs":[{"name":"solver","type":"address","indexed":true,"internalType":"address"},{"name":"status","type":"bool","indexed":false,"internalType":"bool"}],"anonymous":false},{"type":"event","name":"TreasuryUpdated","inputs":[{"name":"newTreasury","type":"address","indexed":true,"internalType":"address"}],"anonymous":false},{"type":"event","name":"Unpaused","inputs":[{"name":"account","type":"address","indexed":false,"internalType":"address"}],"anonymous":false},{"type":"error","name":"InvalidShortString","inputs":[]},{"type":"error","name":"StringTooLong","inputs":[{"name":"str","type":"string","internalType":"string"}]}],"bytecode":{"object":"0x6101606040526032600b556001600c5f6101000a81548160ff02191690831515021790555034801561002f575f5ffd5b506040516145b43803806145b483398181016040528101906100519190610495565b6040518060400160405280601681526020017f506f6c6b61646f74496e74656e7450726f746f636f6c000000000000000000008152506040518060400160405280600581526020017f312e302e300000000000000000000000000000000000000000000000000000008152506100d05f8361025860201b90919060201c565b61012081815250506100ec60018261025860201b90919060201c565b6101408181525050818051906020012060e08181525050808051906020012061010081815250504660a081815250506101296102a560201b60201c565b608081815250503073ffffffffffffffffffffffffffffffffffffffff1660c08173ffffffffffffffffffffffffffffffffffffffff16815250505050600160028190555061018a61017f6102ff60201b60201c565b61030660201b60201c565b5f600360146101000a81548160ff0219169083151502179055505f73ffffffffffffffffffffffffffffffffffffffff168173ffffffffffffffffffffffffffffffffffffffff1603610212576040517f08c379a00000000000000000000000000000000000000000000000000000000081526004016102099061051a565b60405180910390fd5b80600a5f6101000a81548173ffffffffffffffffffffffffffffffffffffffff021916908373ffffffffffffffffffffffffffffffffffffffff160217905550506109d4565b5f60208351101561027957610272836103c960201b60201c565b905061029f565b826102898361042e60201b60201c565b5f0190816102979190610775565b5060ff5f1b90505b92915050565b5f7f8b73c3c69bb8fe3d512ecc4cf759cc79239f7b179b0ffacaa9a75d522b39400f60e0516101005146306040516020016102e495949392919061087a565b60405160208183030381529060405280519060200120905090565b5f33905090565b5f60035f9054906101000a900473ffffffffffffffffffffffffffffffffffffffff1690508160035f6101000a81548173ffffffffffffffffffffffffffffffffffffffff021916908373ffffffffffffffffffffffffffffffffffffffff1602179055508173ffffffffffffffffffffffffffffffffffffffff168173ffffffffffffffffffffffffffffffffffffffff167f8be0079c531659141344cd1fd0a4f28419497f9722a3daafe3b4186f6b6457e060405160405180910390a35050565b5f5f829050601f8151111561041557826040517f305a27a900000000000000000000000000000000000000000000000000000000815260040161040c9190610921565b60405180910390fd5b8051816104219061096e565b5f1c175f1b915050919050565b5f819050919050565b5f5ffd5b5f73ffffffffffffffffffffffffffffffffffffffff82169050919050565b5f6104648261043b565b9050919050565b6104748161045a565b811461047e575f5ffd5b50565b5f8151905061048f8161046b565b92915050565b5f602082840312156104aa576104a9610437565b5b5f6104b784828501610481565b91505092915050565b5f82825260208201905092915050565b7f5661756c743a207a65726f2074726561737572790000000000000000000000005f82015250565b5f6105046014836104c0565b915061050f826104d0565b602082019050919050565b5f6020820190508181035f830152610531816104f8565b9050919050565b5f81519050919050565b7f4e487b71000000000000000000000000000000000000000000000000000000005f52604160045260245ffd5b7f4e487b71000000000000000000000000000000000000000000000000000000005f52602260045260245ffd5b5f60028204905060018216806105b357607f821691505b6020821081036105c6576105c561056f565b5b50919050565b5f819050815f5260205f209050919050565b5f6020601f8301049050919050565b5f82821b905092915050565b5f600883026106287fffffffffffffffffffffffffffffffffffffffffffffffffffffffffffffffff826105ed565b61063286836105ed565b95508019841693508086168417925050509392505050565b5f819050919050565b5f819050919050565b5f61067661067161066c8461064a565b610653565b61064a565b9050919050565b5f819050919050565b61068f8361065c565b6106a361069b8261067d565b8484546105f9565b825550505050565b5f5f905090565b6106ba6106ab565b6106c5818484610686565b505050565b5b818110156106e8576106dd5f826106b2565b6001810190506106cb565b5050565b601f82111561072d576106fe816105cc565b610707846105de565b81016020851015610716578190505b61072a610722856105de565b8301826106ca565b50505b505050565b5f82821c905092915050565b5f61074d5f1984600802610732565b1980831691505092915050565b5f610765838361073e565b9150826002028217905092915050565b61077e82610538565b67ffffffffffffffff81111561079757610796610542565b5b6107a1825461059c565b6107ac8282856106ec565b5f60209050601f8311600181146107dd575f84156107cb578287015190505b6107d5858261075a565b86555061083c565b601f1984166107eb866105cc565b5f5b82811015610812578489015182556001820191506020850194506020810190506107ed565b8683101561082f578489015161082b601f89168261073e565b8355505b6001600288020188555050505b505050505050565b5f819050919050565b61085681610844565b82525050565b6108658161064a565b82525050565b6108748161045a565b82525050565b5f60a08201905061088d5f83018861084d565b61089a602083018761084d565b6108a7604083018661084d565b6108b4606083018561085c565b6108c1608083018461086b565b9695505050505050565b8281835e5f83830152505050565b5f601f19601f8301169050919050565b5f6108f382610538565b6108fd81856104c0565b935061090d8185602086016108cb565b610916816108d9565b840191505092915050565b5f6020820190508181035f83015261093981846108e9565b905092915050565b5f81519050919050565b5f819050602082019050919050565b5f6109658251610844565b80915050919050565b5f61097882610941565b826109828461094b565b905061098d8161095a565b925060208210156109cd576109c87fffffffffffffffffffffffffffffffffffffffffffffffffffffffffffffffff836020036008026105ed565b831692505b5050919050565b60805160a05160c05160e051610100516101205161014051613b8f610a255f395f610d3901525f610d0501525f611f9701525f611f7601525f611b2601525f611b7c01525f611ba50152613b8f5ff3fe608060405234801561000f575f5ffd5b50600436106101a7575f3560e01c80638456cb59116100f7578063ed3c95c011610095578063f1ac037a1161006f578063f1ac037a14610473578063f2fde38b146104a3578063f698da25146104bf578063facc1774146104dd576101a7565b8063ed3c95c0146103f7578063f08d96e314610427578063f0f4426014610457576101a7565b8063b082a274116100d1578063b082a27414610383578063cd4e6e88146103a1578063d55be8c6146103bd578063e5711e8b146103db576101a7565b80638456cb591461033757806384b0196e146103415780638da5cb5b14610365576101a7565b80635c975abb1161016457806367f846db1161013e57806367f846db146102c557806369fe0e2d146102e1578063715018a6146102fd5780637ecebe0014610307576101a7565b80635c975abb1461026b5780635ec3f04e1461028957806361d027b3146102a7576101a7565b80630427842c146101ab57806324a9d853146101c757806336b6a3c3146101e55780633f4ba83a1461021557806348a9f8821461021f5780634d88df2b1461023b575b5f5ffd5b6101c560048036038101906101c0919061230f565b6104f9565b005b6101cf61051d565b6040516101dc9190612352565b60405180910390f35b6101ff60048036038101906101fa919061239e565b610523565b60405161020c91906123d8565b60405180910390f35b61021d610540565b005b61023960048036038101906102349190612475565b610552565b005b61025560048036038101906102509190612548565b61099d565b60405161026291906123d8565b60405180910390f35b6102736109ba565b60405161028091906123d8565b60405180910390f35b6102916109d0565b60405161029e91906123d8565b60405180910390f35b6102af6109e2565b6040516102bc9190612582565b60405180910390f35b6102df60048036038101906102da919061259b565b610a07565b005b6102fb60048036038101906102f6919061260c565b610c2e565b005b610305610cbc565b005b610321600480360381019061031c9190612548565b610ccf565b60405161032e9190612352565b60405180910390f35b61033f610ce4565b005b610349610cf6565b60405161035c97969594939291906127a7565b60405180910390f35b61036d610df2565b60405161037a9190612582565b60405180910390f35b61038b610e1a565b6040516103989190612829565b60405180910390f35b6103bb60048036038101906103b69190612475565b610e3e565b005b6103c56111a7565b6040516103d29190612352565b60405180910390f35b6103f560048036038101906103f09190612842565b6111ad565b005b610411600480360381019061040c9190612548565b6111e5565b60405161041e9190612352565b60405180910390f35b610441600480360381019061043c919061239e565b6111fa565b60405161044e91906123d8565b60405180910390f35b610471600480360381019061046c9190612548565b611217565b005b61048d6004803603810190610488919061239e565b611313565b60405161049a91906123d8565b60405180910390f35b6104bd60048036038101906104b89190612548565b611330565b005b6104c76113b2565b6040516104d49190612829565b60405180910390f35b6104f760048036038101906104f29190612892565b6113c0565b005b61050161146e565b80600c5f6101000a81548160ff02191690831515021790555050565b600b5481565b6004602052805f5260405f205f915054906101000a900460ff1681565b61054861146e565b6105506114ec565b565b61055a61154e565b61056261159b565b3373ffffffffffffffffffffffffffffffffffffffff16835f01602081019061058b9190612548565b73ffffffffffffffffffffffffffffffffffffffff16146105e1576040517f08c379a00000000000000000000000000000000000000000000000000000000081526004016105d89061291a565b60405180910390fd5b428360e0013511610627576040517f08c379a000000000000000000000000000000000000000000000000000000000815260040161061e90612982565b60405180910390fd5b60075f3373ffffffffffffffffffffffffffffffffffffffff1673ffffffffffffffffffffffffffffffffffffffff1681526020019081526020015f20548360c00135146106aa576040517f08c379a00000000000000000000000000000000000000000000000000000000081526004016106a1906129ea565b60405180910390fd5b5f7f30787b75dfe7e00a9583ad1bcbaccda9e17c4acb226dce4a3d5f71e756001c77845f0160208101906106de9190612548565b8560200160208101906106f19190612548565b8660400135876060013588608001602081019061070e9190612548565b8960a00160208101906107219190612548565b8a60c001358b60e001358c80610100019061073c9190612a14565b60405161074a929190612ab2565b604051809103902060405160200161076b9a99989796959493929190612aca565b6040516020818303038152906040528051906020012090505f61078d826115e5565b90505f6107e685858080601f0160208091040260200160405190810160405280939291908181526020018383808284375f81840152601f19601f82011690508083019250505050505050836115fe90919063ffffffff16565b9050855f0160208101906107fa9190612548565b73ffffffffffffffffffffffffffffffffffffffff168173ffffffffffffffffffffffffffffffffffffffff1614610867576040517f08c379a000000000000000000000000000000000000000000000000000000000815260040161085e90612bae565b60405180910390fd5b6108bb865f01602081019061087c9190612548565b3088604001358960200160208101906108959190612548565b73ffffffffffffffffffffffffffffffffffffffff16611623909392919063ffffffff16565b600160045f8481526020019081526020015f205f6101000a81548160ff02191690831515021790555060075f3373ffffffffffffffffffffffffffffffffffffffff1673ffffffffffffffffffffffffffffffffffffffff1681526020019081526020015f205f81548092919061093190612bf9565b9190505550817f44ff612ed104f121c15caa0fd4594ef2f7889b230262401692e4a74319a57853876040516109669190612e31565b60405180910390a2600c5f9054906101000a900460ff161561098d5761098c86836116ac565b5b505050610998611790565b505050565b6008602052805f5260405f205f915054906101000a900460ff1681565b5f600360149054906101000a900460ff16905090565b600c5f9054906101000a900460ff1681565b600a5f9054906101000a900473ffffffffffffffffffffffffffffffffffffffff1681565b610a0f61154e565b8060e001354211610a55576040517f08c379a0000000000000000000000000000000000000000000000000000000008152600401610a4c90612e9b565b60405180910390fd5b5f610a5f8261179a565b905060045f8281526020019081526020015f205f9054906101000a900460ff16610abe576040517f08c379a0000000000000000000000000000000000000000000000000000000008152600401610ab590612f03565b60405180910390fd5b60055f8281526020019081526020015f205f9054906101000a900460ff1615610b1c576040517f08c379a0000000000000000000000000000000000000000000000000000000008152600401610b1390612f6b565b60405180910390fd5b60065f8281526020019081526020015f205f9054906101000a900460ff1615610b7a576040517f08c379a0000000000000000000000000000000000000000000000000000000008152600401610b7190612fd3565b60405180910390fd5b600160065f8381526020019081526020015f205f6101000a81548160ff021916908315150217905550610bf5825f016020810190610bb89190612548565b8360400135846020016020810190610bd09190612548565b73ffffffffffffffffffffffffffffffffffffffff166118809092919063ffffffff16565b807f201e800184023ab964576ffafc7bd0bf44fa36634c07cc62b7069419a752494560405160405180910390a250610c2b611790565b50565b610c3661146e565b6101f4811115610c7b576040517f08c379a0000000000000000000000000000000000000000000000000000000008152600401610c729061303b565b60405180910390fd5b80600b819055507f8c4d35e54a3f2ef1134138fd8ea3daee6a3c89e10d2665996babdf70261e2c7681604051610cb19190612352565b60405180910390a150565b610cc461146e565b610ccd5f611906565b565b6007602052805f5260405f205f915090505481565b610cec61146e565b610cf46119c9565b565b5f6060805f5f5f6060610d325f7f0000000000000000000000000000000000000000000000000000000000000000611a2c90919063ffffffff16565b610d6660017f0000000000000000000000000000000000000000000000000000000000000000611a2c90919063ffffffff16565b46305f5f1b5f67ffffffffffffffff811115610d8557610d84613059565b5b604051908082528060200260200182016040528015610db35781602001602082028036833780820191505090505b507f0f00000000000000000000000000000000000000000000000000000000000000959493929190965096509650965096509650965090919293949596565b5f60035f9054906101000a900473ffffffffffffffffffffffffffffffffffffffff16905090565b7f30787b75dfe7e00a9583ad1bcbaccda9e17c4acb226dce4a3d5f71e756001c7781565b60085f3373ffffffffffffffffffffffffffffffffffffffff1673ffffffffffffffffffffffffffffffffffffffff1681526020019081526020015f205f9054906101000a900460ff16610ec7576040517f08c379a0000000000000000000000000000000000000000000000000000000008152600401610ebe906130d0565b60405180910390fd5b610ecf61154e565b5f610ed98461179a565b905060045f8281526020019081526020015f205f9054906101000a900460ff16610f38576040517f08c379a0000000000000000000000000000000000000000000000000000000008152600401610f2f90612f03565b60405180910390fd5b60055f8281526020019081526020015f205f9054906101000a900460ff1615610f96576040517f08c379a0000000000000000000000000000000000000000000000000000000008152600401610f8d90612f6b565b60405180910390fd5b60065f8281526020019081526020015f205f9054906101000a900460ff1615610ff4576040517f08c379a0000000000000000000000000000000000000000000000000000000008152600401610feb90612fd3565b60405180910390fd5b610fff818484611ad9565b600160055f8381526020019081526020015f205f6101000a81548160ff0219169083151502179055505f612710600b54866040013561103e91906130ee565b611048919061315c565b90505f81866040013561105b919061318c565b90505f8211156110c4576110c3600a5f9054906101000a900473ffffffffffffffffffffffffffffffffffffffff168388602001602081019061109e9190612548565b73ffffffffffffffffffffffffffffffffffffffff166118809092919063ffffffff16565b5b61110133828860200160208101906110dc9190612548565b73ffffffffffffffffffffffffffffffffffffffff166118809092919063ffffffff16565b60095f3373ffffffffffffffffffffffffffffffffffffffff1673ffffffffffffffffffffffffffffffffffffffff1681526020019081526020015f205f81548092919061114e90612bf9565b91905055503373ffffffffffffffffffffffffffffffffffffffff16837f7971f6ddf411cd7680d23877011f0dd37f4f3febbcb4561160b1ae338f91e68d60405160405180910390a35050506111a2611790565b505050565b6101f481565b6111b561146e565b6111e082828573ffffffffffffffffffffffffffffffffffffffff166118809092919063ffffffff16565b505050565b6009602052805f5260405f205f915090505481565b6005602052805f5260405f205f915054906101000a900460ff1681565b61121f61146e565b5f73ffffffffffffffffffffffffffffffffffffffff168173ffffffffffffffffffffffffffffffffffffffff160361128d576040517f08c379a000000000000000000000000000000000000000000000000000000000815260040161128490613209565b60405180910390fd5b80600a5f6101000a81548173ffffffffffffffffffffffffffffffffffffffff021916908373ffffffffffffffffffffffffffffffffffffffff1602179055508073ffffffffffffffffffffffffffffffffffffffff167f7dae230f18360d76a040c81f050aa14eb9d6dc7901b20fc5d855e2a20fe814d160405160405180910390a250565b6006602052805f5260405f205f915054906101000a900460ff1681565b61133861146e565b5f73ffffffffffffffffffffffffffffffffffffffff168173ffffffffffffffffffffffffffffffffffffffff16036113a6576040517f08c379a000000000000000000000000000000000000000000000000000000000815260040161139d90613297565b60405180910390fd5b6113af81611906565b50565b5f6113bb611b23565b905090565b6113c861146e565b8060085f8473ffffffffffffffffffffffffffffffffffffffff1673ffffffffffffffffffffffffffffffffffffffff1681526020019081526020015f205f6101000a81548160ff0219169083151502179055508173ffffffffffffffffffffffffffffffffffffffff167f56649bfa7bc03c440f247269508177518564a008eb323ca738c2e03462df52018260405161146291906123d8565b60405180910390a25050565b611476611bd9565b73ffffffffffffffffffffffffffffffffffffffff16611494610df2565b73ffffffffffffffffffffffffffffffffffffffff16146114ea576040517f08c379a00000000000000000000000000000000000000000000000000000000081526004016114e1906132ff565b60405180910390fd5b565b6114f4611be0565b5f600360146101000a81548160ff0219169083151502179055507f5db9ee0a495bf2e6ff9c91a7834c1ba4fdd244a5e8aa4e537bd38aeae4b073aa611537611bd9565b6040516115449190612582565b60405180910390a1565b6002805403611592576040517f08c379a000000000000000000000000000000000000000000000000000000000815260040161158990613367565b60405180910390fd5b60028081905550565b6115a36109ba565b156115e3576040517f08c379a00000000000000000000000000000000000000000000000000000000081526004016115da906133cf565b60405180910390fd5b565b5f6115f76115f1611b23565b83611c29565b9050919050565b5f5f5f61160b8585611c69565b9150915061161881611cb5565b819250505092915050565b6116a6846323b872dd60e01b858585604051602401611644939291906133ed565b604051602081830303815290604052907bffffffffffffffffffffffffffffffffffffffffffffffffffffffff19166020820180517bffffffffffffffffffffffffffffffffffffffffffffffffffffffff8381831617835250505050611e1a565b50505050565b5f8260600135031561178c575f6001805f85606001356040516020016116d594939291906134a5565b60405160208183030381529060405290505f82845f0160208101906116fa9190612548565b8560400135604051602001611711939291906134f2565b6040516020818303038152906040529050620a000073ffffffffffffffffffffffffffffffffffffffff16637f0a3bf983836040518363ffffffff1660e01b8152600401611760929190613579565b5f604051808303815f87803b158015611777575f5ffd5b505af1925050508015611788575060015b5050505b5050565b6001600281905550565b5f6118797f30787b75dfe7e00a9583ad1bcbaccda9e17c4acb226dce4a3d5f71e756001c77835f0160208101906117d19190612548565b8460200160208101906117e49190612548565b856040013586606001358760800160208101906118019190612548565b8860a00160208101906118149190612548565b8960c001358a60e001358b80610100019061182f9190612a14565b60405161183d929190612ab2565b604051809103902060405160200161185e9a99989796959493929190612aca565b604051602081830303815290604052805190602001206115e5565b9050919050565b6119018363a9059cbb60e01b848460405160240161189f9291906135ae565b604051602081830303815290604052907bffffffffffffffffffffffffffffffffffffffffffffffffffffffff19166020820180517bffffffffffffffffffffffffffffffffffffffffffffffffffffffff8381831617835250505050611e1a565b505050565b5f60035f9054906101000a900473ffffffffffffffffffffffffffffffffffffffff1690508160035f6101000a81548173ffffffffffffffffffffffffffffffffffffffff021916908373ffffffffffffffffffffffffffffffffffffffff1602179055508173ffffffffffffffffffffffffffffffffffffffff168173ffffffffffffffffffffffffffffffffffffffff167f8be0079c531659141344cd1fd0a4f28419497f9722a3daafe3b4186f6b6457e060405160405180910390a35050565b6119d161159b565b6001600360146101000a81548160ff0219169083151502179055507f62e78cea01bee320cd4e420270b5ea74000d11b0c9f74754ebdbfc544b05a258611a15611bd9565b604051611a229190612582565b60405180910390a1565b606060ff5f1b8314611a4857611a4183611ee0565b9050611ad3565b818054611a5490613602565b80601f0160208091040260200160405190810160405280929190818152602001828054611a8090613602565b8015611acb5780601f10611aa257610100808354040283529160200191611acb565b820191905f5260205f20905b815481529060010190602001808311611aae57829003601f168201915b505050505090505b92915050565b5f8282905011611b1e576040517f08c379a0000000000000000000000000000000000000000000000000000000008152600401611b159061367c565b60405180910390fd5b505050565b5f7f000000000000000000000000000000000000000000000000000000000000000073ffffffffffffffffffffffffffffffffffffffff163073ffffffffffffffffffffffffffffffffffffffff16148015611b9e57507f000000000000000000000000000000000000000000000000000000000000000046145b15611bcb577f00000000000000000000000000000000000000000000000000000000000000009050611bd6565b611bd3611f52565b90505b90565b5f33905090565b611be86109ba565b611c27576040517f08c379a0000000000000000000000000000000000000000000000000000000008152600401611c1e906136e4565b60405180910390fd5b565b5f6040517f190100000000000000000000000000000000000000000000000000000000000081528360028201528260228201526042812091505092915050565b5f5f6041835103611ca6575f5f5f602086015192506040860151915060608601515f1a9050611c9a87828585611fe7565b94509450505050611cae565b5f6002915091505b9250929050565b5f6004811115611cc857611cc7613702565b5b816004811115611cdb57611cda613702565b5b0315611e175760016004811115611cf557611cf4613702565b5b816004811115611d0857611d07613702565b5b03611d48576040517f08c379a0000000000000000000000000000000000000000000000000000000008152600401611d3f90613779565b60405180910390fd5b60026004811115611d5c57611d5b613702565b5b816004811115611d6f57611d6e613702565b5b03611daf576040517f08c379a0000000000000000000000000000000000000000000000000000000008152600401611da6906137e1565b60405180910390fd5b60036004811115611dc357611dc2613702565b5b816004811115611dd657611dd5613702565b5b03611e16576040517f08c379a0000000000000000000000000000000000000000000000000000000008152600401611e0d9061386f565b60405180910390fd5b5b50565b5f611e7b826040518060400160405280602081526020017f5361666545524332303a206c6f772d6c6576656c2063616c6c206661696c65648152508573ffffffffffffffffffffffffffffffffffffffff166120bf9092919063ffffffff16565b90505f81511480611e9c575080806020019051810190611e9b91906138a1565b5b611edb576040517f08c379a0000000000000000000000000000000000000000000000000000000008152600401611ed29061393c565b60405180910390fd5b505050565b60605f611eec836120d6565b90505f602067ffffffffffffffff811115611f0a57611f09613059565b5b6040519080825280601f01601f191660200182016040528015611f3c5781602001600182028036833780820191505090505b5090508181528360208201528092505050919050565b5f7f8b73c3c69bb8fe3d512ecc4cf759cc79239f7b179b0ffacaa9a75d522b39400f7f00000000000000000000000000000000000000000000000000000000000000007f00000000000000000000000000000000000000000000000000000000000000004630604051602001611fcc95949392919061395a565b60405160208183030381529060405280519060200120905090565b5f5f7f7fffffffffffffffffffffffffffffff5d576e7357a4501ddfe92f46681b20a0835f1c111561201f575f6003915091506120b6565b5f6001878787876040515f815260200160405260405161204294939291906139ba565b6020604051602081039080840390855afa158015612062573d5f5f3e3d5ffd5b5050506020604051035190505f73ffffffffffffffffffffffffffffffffffffffff168173ffffffffffffffffffffffffffffffffffffffff16036120ae575f600192509250506120b6565b805f92509250505b94509492505050565b60606120cd84845f85612124565b90509392505050565b5f5f60ff835f1c169050601f81111561211b576040517fb3512b0c00000000000000000000000000000000000000000000000000000000815260040160405180910390fd5b80915050919050565b606082471015612169576040517f08c379a000000000000000000000000000000000000000000000000000000000815260040161216090613a6d565b60405180910390fd5b5f5f8673ffffffffffffffffffffffffffffffffffffffff1685876040516121919190613abb565b5f6040518083038185875af1925050503d805f81146121cb576040519150601f19603f3d011682016040523d82523d5f602084013e6121d0565b606091505b50915091506121e1878383876121ed565b92505050949350505050565b6060831561224e575f8351036122465761220685612261565b612245576040517f08c379a000000000000000000000000000000000000000000000000000000000815260040161223c90613b1b565b60405180910390fd5b5b829050612259565b6122588383612283565b5b949350505050565b5f5f8273ffffffffffffffffffffffffffffffffffffffff163b119050919050565b5f825111156122955781518083602001fd5b806040517f08c379a00000000000000000000000000000000000000000000000000000000081526004016122c99190613b39565b60405180910390fd5b5f5ffd5b5f5ffd5b5f8115159050919050565b6122ee816122da565b81146122f8575f5ffd5b50565b5f81359050612309816122e5565b92915050565b5f60208284031215612324576123236122d2565b5b5f612331848285016122fb565b91505092915050565b5f819050919050565b61234c8161233a565b82525050565b5f6020820190506123655f830184612343565b92915050565b5f819050919050565b61237d8161236b565b8114612387575f5ffd5b50565b5f8135905061239881612374565b92915050565b5f602082840312156123b3576123b26122d2565b5b5f6123c08482850161238a565b91505092915050565b6123d2816122da565b82525050565b5f6020820190506123eb5f8301846123c9565b92915050565b5f5ffd5b5f610120828403121561240b5761240a6123f1565b5b81905092915050565b5f5ffd5b5f5ffd5b5f5ffd5b5f5f83601f84011261243557612434612414565b5b8235905067ffffffffffffffff81111561245257612451612418565b5b60208301915083600182028301111561246e5761246d61241c565b5b9250929050565b5f5f5f6040848603121561248c5761248b6122d2565b5b5f84013567ffffffffffffffff8111156124a9576124a86122d6565b5b6124b5868287016123f5565b935050602084013567ffffffffffffffff8111156124d6576124d56122d6565b5b6124e286828701612420565b92509250509250925092565b5f73ffffffffffffffffffffffffffffffffffffffff82169050919050565b5f612517826124ee565b9050919050565b6125278161250d565b8114612531575f5ffd5b50565b5f813590506125428161251e565b92915050565b5f6020828403121561255d5761255c6122d2565b5b5f61256a84828501612534565b91505092915050565b61257c8161250d565b82525050565b5f6020820190506125955f830184612573565b92915050565b5f602082840312156125b0576125af6122d2565b5b5f82013567ffffffffffffffff8111156125cd576125cc6122d6565b5b6125d9848285016123f5565b91505092915050565b6125eb8161233a565b81146125f5575f5ffd5b50565b5f81359050612606816125e2565b92915050565b5f60208284031215612621576126206122d2565b5b5f61262e848285016125f8565b91505092915050565b5f7fff0000000000000000000000000000000000000000000000000000000000000082169050919050565b61266b81612637565b82525050565b5f81519050919050565b5f82825260208201905092915050565b8281835e5f83830152505050565b5f601f19601f8301169050919050565b5f6126b382612671565b6126bd818561267b565b93506126cd81856020860161268b565b6126d681612699565b840191505092915050565b6126ea8161236b565b82525050565b5f81519050919050565b5f82825260208201905092915050565b5f819050602082019050919050565b6127228161233a565b82525050565b5f6127338383612719565b60208301905092915050565b5f602082019050919050565b5f612755826126f0565b61275f81856126fa565b935061276a8361270a565b805f5b8381101561279a5781516127818882612728565b975061278c8361273f565b92505060018101905061276d565b5085935050505092915050565b5f60e0820190506127ba5f83018a612662565b81810360208301526127cc81896126a9565b905081810360408301526127e081886126a9565b90506127ef6060830187612343565b6127fc6080830186612573565b61280960a08301856126e1565b81810360c083015261281b818461274b565b905098975050505050505050565b5f60208201905061283c5f8301846126e1565b92915050565b5f5f5f60608486031215612859576128586122d2565b5b5f61286686828701612534565b935050602061287786828701612534565b9250506040612888868287016125f8565b9150509250925092565b5f5f604083850312156128a8576128a76122d2565b5b5f6128b585828601612534565b92505060206128c6858286016122fb565b9150509250929050565b7f496e74656e743a2075736572206d69736d6174636800000000000000000000005f82015250565b5f61290460158361267b565b915061290f826128d0565b602082019050919050565b5f6020820190508181035f830152612931816128f8565b9050919050565b7f496e74656e743a206578706972656400000000000000000000000000000000005f82015250565b5f61296c600f8361267b565b915061297782612938565b602082019050919050565b5f6020820190508181035f83015261299981612960565b9050919050565b7f496e74656e743a20696e76616c6964206e6f6e636500000000000000000000005f82015250565b5f6129d460158361267b565b91506129df826129a0565b602082019050919050565b5f6020820190508181035f830152612a01816129c8565b9050919050565b5f5ffd5b5f5ffd5b5f5ffd5b5f5f83356001602003843603038112612a3057612a2f612a08565b5b80840192508235915067ffffffffffffffff821115612a5257612a51612a0c565b5b602083019250600182023603831315612a6e57612a6d612a10565b5b509250929050565b5f81905092915050565b828183375f83830152505050565b5f612a998385612a76565b9350612aa6838584612a80565b82840190509392505050565b5f612abe828486612a8e565b91508190509392505050565b5f61014082019050612ade5f83018d6126e1565b612aeb602083018c612573565b612af8604083018b612573565b612b05606083018a612343565b612b126080830189612343565b612b1f60a0830188612573565b612b2c60c0830187612573565b612b3960e0830186612343565b612b47610100830185612343565b612b556101208301846126e1565b9b9a5050505050505050505050565b7f496e74656e743a20696e76616c6964207369676e6174757265000000000000005f82015250565b5f612b9860198361267b565b9150612ba382612b64565b602082019050919050565b5f6020820190508181035f830152612bc581612b8c565b9050919050565b7f4e487b71000000000000000000000000000000000000000000000000000000005f52601160045260245ffd5b5f612c038261233a565b91507fffffffffffffffffffffffffffffffffffffffffffffffffffffffffffffffff8203612c3557612c34612bcc565b5b600182019050919050565b5f612c4e6020840184612534565b905092915050565b612c5f8161250d565b82525050565b5f612c7360208401846125f8565b905092915050565b5f5ffd5b5f5ffd5b5f5ffd5b5f5f83356001602003843603038112612ca357612ca2612c83565b5b83810192508235915060208301925067ffffffffffffffff821115612ccb57612cca612c7b565b5b600182023603831315612ce157612ce0612c7f565b5b509250929050565b5f82825260208201905092915050565b5f612d048385612ce9565b9350612d11838584612a80565b612d1a83612699565b840190509392505050565b5f6101208301612d375f840184612c40565b612d435f860182612c56565b50612d516020840184612c40565b612d5e6020860182612c56565b50612d6c6040840184612c65565b612d796040860182612719565b50612d876060840184612c65565b612d946060860182612719565b50612da26080840184612c40565b612daf6080860182612c56565b50612dbd60a0840184612c40565b612dca60a0860182612c56565b50612dd860c0840184612c65565b612de560c0860182612719565b50612df360e0840184612c65565b612e0060e0860182612719565b50612e0f610100840184612c87565b858303610100870152612e23838284612cf9565b925050508091505092915050565b5f6020820190508181035f830152612e498184612d25565b905092915050565b7f496e74656e743a206e6f742065787069726564000000000000000000000000005f82015250565b5f612e8560138361267b565b9150612e9082612e51565b602082019050919050565b5f6020820190508181035f830152612eb281612e79565b9050919050565b7f496e74656e743a206e6f742072656769737465726564000000000000000000005f82015250565b5f612eed60168361267b565b9150612ef882612eb9565b602082019050919050565b5f6020820190508181035f830152612f1a81612ee1565b9050919050565b7f496e74656e743a20616c726561647920736574746c65640000000000000000005f82015250565b5f612f5560178361267b565b9150612f6082612f21565b602082019050919050565b5f6020820190508181035f830152612f8281612f49565b9050919050565b7f496e74656e743a20616c726561647920726566756e64656400000000000000005f82015250565b5f612fbd60188361267b565b9150612fc882612f89565b602082019050919050565b5f6020820190508181035f830152612fea81612fb1565b9050919050565b7f5661756c743a2066656520746f6f2068696768000000000000000000000000005f82015250565b5f61302560138361267b565b915061303082612ff1565b602082019050919050565b5f6020820190508181035f83015261305281613019565b9050919050565b7f4e487b71000000000000000000000000000000000000000000000000000000005f52604160045260245ffd5b7f5661756c743a206e6f7420612077686974656c697374656420736f6c766572005f82015250565b5f6130ba601f8361267b565b91506130c582613086565b602082019050919050565b5f6020820190508181035f8301526130e7816130ae565b9050919050565b5f6130f88261233a565b91506131038361233a565b92508282026131118161233a565b9150828204841483151761312857613127612bcc565b5b5092915050565b7f4e487b71000000000000000000000000000000000000000000000000000000005f52601260045260245ffd5b5f6131668261233a565b91506131718361233a565b9250826131815761318061312f565b5b828204905092915050565b5f6131968261233a565b91506131a18361233a565b92508282039050818111156131b9576131b8612bcc565b5b92915050565b7f5661756c743a207a65726f2074726561737572790000000000000000000000005f82015250565b5f6131f360148361267b565b91506131fe826131bf565b602082019050919050565b5f6020820190508181035f830152613220816131e7565b9050919050565b7f4f776e61626c653a206e6577206f776e657220697320746865207a65726f20615f8201527f6464726573730000000000000000000000000000000000000000000000000000602082015250565b5f61328160268361267b565b915061328c82613227565b604082019050919050565b5f6020820190508181035f8301526132ae81613275565b9050919050565b7f4f776e61626c653a2063616c6c6572206973206e6f7420746865206f776e65725f82015250565b5f6132e960208361267b565b91506132f4826132b5565b602082019050919050565b5f6020820190508181035f830152613316816132dd565b9050919050565b7f5265656e7472616e637947756172643a207265656e7472616e742063616c6c005f82015250565b5f613351601f8361267b565b915061335c8261331d565b602082019050919050565b5f6020820190508181035f83015261337e81613345565b9050919050565b7f5061757361626c653a20706175736564000000000000000000000000000000005f82015250565b5f6133b960108361267b565b91506133c482613385565b602082019050919050565b5f6020820190508181035f8301526133e6816133ad565b9050919050565b5f6060820190506134005f830186612573565b61340d6020830185612573565b61341a6040830184612343565b949350505050565b5f60ff82169050919050565b5f8160f81b9050919050565b5f6134448261342e565b9050919050565b61345c61345782613422565b61343a565b82525050565b5f63ffffffff82169050919050565b5f8160e01b9050919050565b5f61348782613471565b9050919050565b61349f61349a82613462565b61347d565b82525050565b5f6134b0828761344b565b6001820191506134c0828661344b565b6001820191506134d0828561344b565b6001820191506134e0828461348e565b60048201915081905095945050505050565b5f6060820190506135055f8301866126e1565b6135126020830185612573565b61351f6040830184612343565b949350505050565b5f81519050919050565b5f82825260208201905092915050565b5f61354b82613527565b6135558185613531565b935061356581856020860161268b565b61356e81612699565b840191505092915050565b5f6040820190508181035f8301526135918185613541565b905081810360208301526135a58184613541565b90509392505050565b5f6040820190506135c15f830185612573565b6135ce6020830184612343565b9392505050565b7f4e487b71000000000000000000000000000000000000000000000000000000005f52602260045260245ffd5b5f600282049050600182168061361957607f821691505b60208210810361362c5761362b6135d5565b5b50919050565b7f496e74656e743a20656d7074792070726f6f66000000000000000000000000005f82015250565b5f61366660138361267b565b915061367182613632565b602082019050919050565b5f6020820190508181035f8301526136938161365a565b9050919050565b7f5061757361626c653a206e6f74207061757365640000000000000000000000005f82015250565b5f6136ce60148361267b565b91506136d98261369a565b602082019050919050565b5f6020820190508181035f8301526136fb816136c2565b9050919050565b7f4e487b71000000000000000000000000000000000000000000000000000000005f52602160045260245ffd5b7f45434453413a20696e76616c6964207369676e617475726500000000000000005f82015250565b5f61376360188361267b565b915061376e8261372f565b602082019050919050565b5f6020820190508181035f83015261379081613757565b9050919050565b7f45434453413a20696e76616c6964207369676e6174757265206c656e677468005f82015250565b5f6137cb601f8361267b565b91506137d682613797565b602082019050919050565b5f6020820190508181035f8301526137f8816137bf565b9050919050565b7f45434453413a20696e76616c6964207369676e6174757265202773272076616c5f8201527f7565000000000000000000000000000000000000000000000000000000000000602082015250565b5f61385960228361267b565b9150613864826137ff565b604082019050919050565b5f6020820190508181035f8301526138868161384d565b9050919050565b5f8151905061389b816122e5565b92915050565b5f602082840312156138b6576138b56122d2565b5b5f6138c38482850161388d565b91505092915050565b7f5361666545524332303a204552433230206f7065726174696f6e20646964206e5f8201527f6f74207375636365656400000000000000000000000000000000000000000000602082015250565b5f613926602a8361267b565b9150613931826138cc565b604082019050919050565b5f6020820190508181035f8301526139538161391a565b9050919050565b5f60a08201905061396d5f8301886126e1565b61397a60208301876126e1565b61398760408301866126e1565b6139946060830185612343565b6139a16080830184612573565b9695505050505050565b6139b481613422565b82525050565b5f6080820190506139cd5f8301876126e1565b6139da60208301866139ab565b6139e760408301856126e1565b6139f460608301846126e1565b95945050505050565b7f416464726573733a20696e73756666696369656e742062616c616e636520666f5f8201527f722063616c6c0000000000000000000000000000000000000000000000000000602082015250565b5f613a5760268361267b565b9150613a62826139fd565b604082019050919050565b5f6020820190508181035f830152613a8481613a4b565b9050919050565b5f613a9582613527565b613a9f8185612a76565b9350613aaf81856020860161268b565b80840191505092915050565b5f613ac68284613a8b565b915081905092915050565b7f416464726573733a2063616c6c20746f206e6f6e2d636f6e74726163740000005f82015250565b5f613b05601d8361267b565b9150613b1082613ad1565b602082019050919050565b5f6020820190508181035f830152613b3281613af9565b9050919050565b5f6020820190508181035f830152613b5181846126a9565b90509291505056fea2646970667358221220d4a534ef78b48961849d6236155cc8f7650321dc36a8b6b19fbb1b5da24b5d0964736f6c634300081c0033","linkReferences":{}},"methodIdentifiers":{"INTENT_TYPEHASH()":"b082a274","MAX_FEE_BPS()":"d55be8c6","domainSeparator()":"f698da25","eip712Domain()":"84b0196e","feeBps()":"24a9d853","lockIntent((address,address,uint256,uint256,address,address,uint256,uint256,bytes),bytes)":"48a9f882","nonces(address)":"7ecebe00","owner()":"8da5cb5b","pause()":"8456cb59","paused()":"5c975abb","refundIntent((address,address,uint256,uint256,address,address,uint256,uint256,bytes))":"67f846db","refundedIntents(bytes32)":"f1ac037a","registeredIntents(bytes32)":"36b6a3c3","renounceOwnership()":"715018a6","rescueToken(address,address,uint256)":"e5711e8b","setFee(uint256)":"69fe0e2d","setSolverWhitelist(address,bool)":"facc1774","setTreasury(address)":"f0f44260","setXcmEnabled(bool)":"0427842c","settleIntent((address,address,uint256,uint256,address,address,uint256,uint256,bytes),bytes)":"cd4e6e88","settledIntents(bytes32)":"f08d96e3","solverReputation(address)":"ed3c95c0","transferOwnership(address)":"f2fde38b","treasury()":"61d027b3","unpause()":"3f4ba83a","whitelistedSolvers(address)":"4d88df2b","xcmEnabled()":"5ec3f04e"},"id":39}